:100000000C94300A0C94500A0C94500A0C94500A28
:100010000C94500A0C94500A0C94500A0C94500AF8
:100020000C94500A0C94500A0C948B150C94500AA2
:100030000C94500A0C94500A0C94500A0C94500AD8
:100040000C94500A0C94500A0C94500A0C94500AC8
:100050000C94500A0C94500A0C94500A0C94500AB8
:100060000C94500A0C94500A0C94500A0C94500AA8
:100070000C94500A0C94500A0C94500A0C94500A98
:100080000C94500A0C94500A0C94500A0C94500A88
:100090000C94500A0C94500A0C94500A0C94500A78
:1000A0000C94500A0C94500A0C94500A0C94500A68
:1000B0000C94500A0C94500A0C94500A0C94500A58
:1000C0000C94500A0C94500A0C94500A0C94500A48
:1000D0000C94500A0C94500A0C94500A0C94500A38
:1000E0000C94500A0C94500A0C94500A0C94500A28
:1000F0000C94500A0C94500A0C94500A0C94500A18
:100100000C94500A0C94500A0C94500A0C94500A07
:100110000C94500A0C94500A0C94500A0C94500AF7
:100120000C94500A0C94500A0C94500A0C94500AE7
:100130000C94500A0C94500A0C94500A0C94500AD7
:100140000C94500A0C94500A0C94500A0C94500AC7
:100150000C94500A0C94500A0C94500A0C94500AB7
:100160000C94500A0C94500A0C94500A0C94500AA7
:100170000C94500A0C94500A0C94500A0C94500A97
:100180000C94500A0C94500A0C94500A0C94500A87
:100190000C94500A0C94500A0C94500A0C94500A77
:1001A0000C94500A0C94500A0C94500A0C94500A67
:1001B0000C94500A0C94500A0C94500A0C94500A57
:1001C0000C94500A0C94500A0C94500A0C94500A47
:1001D0000C94500A0C94500A0C94500A0C94500A37
:1001E0000C94500A0C94500A0C94500A0C94500A27
:1001F0000C94500A0C94D4210C94500A20202020F6
:100200002020204C6173744B65795573653A20004A
:100210000A0D0020557064617465436F756E743A01
:100220000020202020202020557365466C61673A0D
:10023000000A0D00205772697465436F6E66696726
:100240003A000A0D20202020202020577269746572
:100250004B65793A002049735365637265743A00BF
:1002600020456E6372797074526561643A00205360
:10027000696E676C655573653A0020436865636B0A
:100280004F6E6C793A0020526561644B65793A0093
:10029000536C6F743A00436F6E6669677572617470
:1002A000696F6E73206F6620736C6F74733A2000F1
:1002B0006C6F636B65642100756E6C6F636B656456
:1002C0002E00436F6E666967207A6F6E65206973D2
:1002D00020006C6F636B65642100756E6C6F636BDF
:1002E00065642E004461746120616E64204F545037
:1002F000207A6F6E65732061726520000A0D0053CD
:10030000656C6563746F7220627974653A20000AC7
:100310000D0055736572204578747261206279749E
:10032000653A200063616E206265207570646174B7
:100330006564206F6E6C792069662069742069732A
:1003400020302E0063616E206265207570646174D8
:1003500065642077697468205570646174654578B8
:100360007472612E0053656C6563746F723A20007D
:1003700072657365727665642076616C7565202898
:1003800070726F626C656D2129006C6567616379BD
:1003900000636F6E73756D7074696F6E0072656166
:1003A000642D6F6E6C79004F5450206D6F64653A08
:1003B00020006669786564005663630053696E6760
:1003C0006C655769726520284932432064697361FE
:1003D000626C6564293B2054544C20696E707574BE
:1003E000206C6576656C3A20000A0D004932432086
:1003F000656E61626C65643B204164647265737311
:100400003A20005265766973696F6E206E756D6271
:1004100065723A200053657269616C206E756D6279
:1004200065723A2000706172616D322000706172F5
:10043000616D31200057696C6C2072756E20776990
:1004400074683A206F70636F64652000526563655D
:10045000697665642066726F6D204154534841325D
:1004600030343A2000457865637574696E673A20C8
:1004700000202D20496E7075742C207768656E20E1
:100480007265717565737465642C20697320657875
:1004900070656374656420696E20287061646465AA
:1004A00064292048455820666F726D61742C206560
:1004B0002E672E2027414230312720666F7220742C
:1004C000776F2062797465733A2031373120312E8D
:1004D0000A0D00202020206D61696E6C7920746FF8
:1004E00020636865636B2074686520656E7465724F
:1004F000656420706172616D65746572732E002091
:100500002D20546865202773656E74207061636BBD
:1005100065742720696E666F20646F6573206E6F47
:100520007420616C77617973206D617463682077E2
:1005300068617427732061637475616C6C792065E0
:10054000786163746C792073656E742E204974270A
:10055000732070726F766964656400202D204154A9
:100560005348413230342069732073656E742074AF
:100570006F20736C656570206F7220746F206964E2
:100580006C65206D6F6465206166746572206576A8
:1005900065727920636F6D6D616E642C2073656C7C
:1005A00065637420766961205B495D2E0020202000
:1005B000203C31627974653A7061636B65745F7376
:1005C000697A653E203C6D73675F627974653E2091
:1005D0003C6D73675F627974653E202E2E2E203C41
:1005E00031627974653A6372635F313E203C3162F7
:1005F0007974653A6372635F323E00202D20466F46
:10060000726D6174206F662041545348413230341A
:1006100020636F6D6D616E6420726573706F6E73B1
:1006200065733A004164646974696F6E616C20633C
:100630006F6D6D656E74733A0044616E6765726FBD
:1006400075732F6F6E652D74696D65206F6E6C7993
:1006500021205B4C5D6F636B0A0D00273F27202D27
:100660003E20746869732068656C7000506C617915
:1006700067726F756E6420636F6E6669673A205BA0
:10068000495D646C652D6F722D736C6565700050EB
:10069000726F63657373656420636F6D6D616E6403
:1006A000733A205B735D657269616C20635B6F5D9B
:1006B0006E6669675F7A6F6E6500202020202020BB
:1006C00020202020202020205B6D5D6163205B6E58
:1006D0005D6F6E6365205B725D616E646F6D20722D
:1006E0005B655D6164205B775D72697465205B7535
:1006F0005D646174655F6578747261005261772032
:10070000636F6D6D616E64733A2077615B6B5D65DD
:10071000205B635D6865636B4D4143205B645D6591
:10072000726976655F6B6579206465765F72655B7B
:10073000765D6973696F6E205B675D656E5F646986
:1007400067205B685D4D4143002A2A2A20534841B7
:1007500032303420706C617967726F756E64205B23
:10076000286329203230313420666C616262657200
:10077000676173745D202A2A2A0A0D000A0D004958
:10078000646C652E00536C6565702E005377697438
:100790006368696E6720776865746865722074683D
:1007A000652041545348412073686F756C64206222
:1007B000652070757420746F20736C656570206F90
:1007C0007220746F2069646C65206D6F64652061B0
:1007D0006674657220636F6D6D616E64732E0A0DB1
:1007E00043757272656E742073657474696E673ACE
:1007F00020000A0D00456E7465722053756D6D61A1
:100800007279202F204352432D3136206F66207499
:100810006865207A6F6E652028322062797465736E
:100820002C2073686F756C642062652030206966C7
:100830002027666F726365273B2064656661756C6F
:10084000742030293A00456E746572207A6F6E65A7
:1008500020283120627974653A2030302F436F6E42
:10086000666967206F722030312F4F54505F6F726E
:100870005F446174612C202B3078383020666F72B1
:100880002027666F726365272028435243206967DB
:100890006E6F726564293B2064656661756C7420B7
:1008A00030293A004C6F636B2061207A6F6E652EA1
:1008B00020546869732069732061206F6E6520740D
:1008C000696D65207468696E6721204F6E636520CD
:1008D000796F75206C6F636B2061207A6F6E652C69
:1008E0002069742043414E275420424520554E4CE8
:1008F0004F434B45442E2045564552210053686FC7
:10090000756C6420726563656976653A20202020E5
:100910002020202020303420313120333320343344
:1009200000546573742077616B696E672075702E53
:10093000000A0D00456E746572206E657720766141
:100940006C756520283120627974653B206465668A
:1009500061756C742030293A00456E746572206DA3
:100960006F646520283120627974653A2030302D1B
:100970003E7570646174652038342C2030312D3E12
:100980007570646174652038353B206465666175F7
:100990006C742030293A00557064617465202755C5
:1009A000736572457874726127206279746573206B
:1009B00028383420616E642038352920696E20740F
:1009C000686520436F6E66207A6F6E65206166747D
:1009D0006572206C6F636B696E672E006461746171
:1009E00032200064617461312000456E74657220AC
:1009F0004D414320746F2076616C69646174652099
:100A00006164647265737320616E642064617461F3
:100A1000202830206F722033322062797465733B56
:100A20002064656661756C742030293A00456E74E7
:100A300065722064617461202834206F7220333223
:100A40002062797465733B2064656661756C7420FF
:100A500030293A00456E7465722041646472657392
:100A6000732028322062797465733B206465666167
:100A7000756C742030293A0020202B3078383020D3
:100A8000746F20777269746520333220696E7374D5
:100A9000656164206F6620342062797465732C2050
:100AA0002B3078343020746F2072657175697265EF
:100AB00020656E6372797074696F6E3B2064656641
:100AC00061756C742030293A00456E746572207A25
:100AD0006F6E6520283120627974653A2030302F9E
:100AE000436F6E666967206F722030312F4F54500C
:100AF000206F722030322F446174612C005772696C
:100B0000746520746F206465766963652E000A0D34
:100B100000456E74657220416464726573732028A9
:100B2000322062797465733B2064656661756C740C
:100B30002030293A00456E746572207A6F6E652008
:100B4000283120627974653A2030302F436F6E6609
:100B50006967206F722030312F4F5450206F722000
:100B600030322F446174612C202B3078383020745F
:100B70006F207265616420333220696E7374656121
:100B800064206F6620342062797465733B2064654D
:100B90006661756C742030293A0052656164206684
:100BA000726F6D206465766963652E006E6F6E6589
:100BB00000456E746572206D6F64652028303020AA
:100BC0006F722030313B2064656661756C74203033
:100BD000293A0047656E6572617465206120726113
:100BE0006E646F6D2073657175656E63652E006E42
:100BF0006F6E6500456E74657220696E7075742045
:100C000076616C756520283230206F722033322077
:100C100062797465732028646570206F6E206D6F33
:100C20006465293B2064656661756C7420616C6C39
:100C30002030293A00456E746572206D6F6465201E
:100C400028303020746F2030333B20646566617536
:100C50006C742030293A0047656E657261746520B6
:100C600061206E6F6E636520666F722073756273AC
:100C7000657175656E7420757365206279206F7477
:100C800068657220636F6D6D616E647320284E6FAE
:100C90006E636520636F6D6D616E64292E00646103
:100CA0007461312000456E746572206368616C6CFC
:100CB000656E6765202833322062797465733B2046
:100CC00064656661756C742030293A00456E746500
:100CD0007220536C6F74204944202832206279744A
:100CE00065733B2064656661756C742030293A0039
:100CF000456E746572206D6F6465202831206279BD
:100D000074653B2064656661756C742030293A0017
:100D1000436F6D70757465205348412D3235362010
:100D200066726F6D206B6579202B206368616C6C37
:100D3000656E6765202B206F7468657220696E662A
:100D40006F206F6E2064657669636520284D41438E
:100D500020636F6D6D616E64292E000A0D00456E73
:100D600074657220536C6F742049442028322062CD
:100D7000797465733B2064656661756C74203029F5
:100D80003A00456E746572206D6F646520283120CD
:100D9000627974653B2064656661756C74203029E6
:100DA0003A00436F6D7075746520484D41432F5371
:100DB00048412D3235362064696765737420667248
:100DC0006F6D206B6579202B206F746865722069C8
:100DD0006E666F206F6E20646576696365202848B3
:100DE0004D414320636F6D6D616E64292E00646117
:100DF0007461312000456E746572206F746865728D
:100E000020646174612028342062797465732077CE
:100E100068656E20436865636B4B65792C206F7441
:100E2000686572776973652069676E6F7265643B88
:100E30002064656661756C742030293A00456E74D3
:100E40006572204B6579204944202F204F54502053
:100E5000736C6F7420494420283120627974653B9B
:100E60002064656661756C742030293A00456E74A3
:100E70006572207A6F6E6520283120627974653A38
:100E80002030302F436F6E666967206F72203031DB
:100E90002F4F5450206F722030322F446174613BC9
:100EA0002064656661756C742030293A00436F6D6B
:100EB00070757465205348412D3235362066726F47
:100EC0006D2054656D704B65792B73746F7265641A
:100ED0002076616C75652C2073746F726520726565
:100EE00073756C7420696E2054656D704B65792044
:100EF0002847656E44696720636F6D6D616E642974
:100F00002E0052657175657374206465766963653A
:100F1000207265766973696F6E2E00646174613149
:100F20002000456E746572204D414320666F72202B
:100F300076616C69646174696F6E202830206F720D
:100F40002033322062797465733B20646566617575
:100F50006C742030293A00456E74657220546172B9
:100F600067657420536C6F742049442028312062D7
:100F70007974653B2064656661756C742030293A2C
:100F800000456E7465722072616E646F6D20283149
:100F900020627974653A203030206F722030343B03
:100FA0002064656661756C742030293A00436F6D6A
:100FB00062696E652063757272656E74206B657907
:100FC0002077697468206E6F6E636520616E64209F
:100FD00073746F726520696E2061206B6579207370
:100FE0006C6F7420284465726976654B657920635F
:100FF0006F6D6D616E64292E006461746133200031
:101000006461746132200064617461312000456E56
:10101000746572206F746865722064617461202841
:1010200031332062797465733B2064656661756C49
:10103000742030293A00456E74657220636C6965CE
:101040006E7420726573706F6E7365202833322062
:1010500062797465733B2064656661756C742030D9
:10106000293A00456E74657220636C69656E742060
:101070006368616C6C656E67652028333220627925
:101080007465733B2064656661756C742030293A21
:1010900000456E74657220536C6F7420494420289B
:1010A0003120627974653B2064656661756C7420DB
:1010B00030293A00456E746572206D6F6465202892
:1010C0003120627974653B2064656661756C7420BB
:1010D00030293A0043616C63756C61746520616E00
:1010E0006420636F6D70617265204D414320284319
:1010F0006865636B4D414320636F6D6D616E64295C
:101100002E005265717565737420616E6420646988
:1011100073706C617920636F6E666967207A6F6E99
:101120006520636F6E74656E74732E00526563651F
:101130006976656420534E3A200053686F756C647D
:10114000206765743A2020303120323320787820AF
:1011500078782078782078782078782078782045FA
:101160004500526571756573742073657269616CB1
:10117000206E756D6265722E002D2D2D2053202D51
:101180002D2D002D2D2D2049202D2D2D000A0D0057
:10119000427574746F6E20707265737365642E008F
:1011A000556E6B6E6F776E206572726F72206D6513
:1011B00073736167652E0054696D656F7574207770
:1011C00068696C652077616974696E6720666F7203
:1011D000206120726573706F6E73652028676F746D
:1011E000206E6F206279746573292E00436F6D6DD8
:1011F000756E69636174696F6E206661696C6564A0
:1012000000526573796E63204F4B2061667465727E
:101210002077616B6575702E0054696D656F75740C
:1012200020286E6F7420616E206572726F72207755
:1012300068696C652062757379292E0054696D6543
:101240006F7574207768696C652077616974696E61
:101250006720666F72206120726573706F6E7365B0
:101260002028676F74203E30206279746573292EC0
:10127000004261642043524320726563656976656C
:10128000642E004F7574206F662072616E67652052
:101290006572726F722E00496E76616C69642064AB
:1012A00065766963652049442E004261642070615F
:1012B00072616D657465722E00556E737065636939
:1012C00066696564206572726F722E00436F756C7B
:1012D000646E277420657865637574652064756530
:1012E00020746F2077726F6E6720636F6E6469740D
:1012F000696F6E2F73746174652E00556E6B6E6F1F
:10130000776E206572726F722E00435243206572B1
:10131000726F722E00436F6D6D616E64206578652B
:10132000637574696F6E206572726F722E00506102
:10133000727365206572726F722E005375636365F8
:1013400073732E000D0A000D0A004603730065003A
:101350007200690061006C002F006B00650079006D
:1013600062006F00610072006400200041005600BE
:101370005200200073007400690063006B002000BD
:101380006400650076002000640065006D006F0059
:101390000000180366006C006100620062006500D6
:1013A0007200670061007300740000000403090408
:1013B00009025F00030100C032080B0002020201B3
:1013C00000090400000102020100052400100104CC
:1013D0002402060524060001070582030800FF0910
:1013E000040100020A0000000705040210000507BE
:1013F0000583021000050904020001030101000930
:101400002111010001223F00070581030800051298
:10141000011001EF020108EB036F2001000102DC63
:101420000105010906A101050719E029E7150025B5
:10143000017501950881029501750881010508195A
:101440000129059505750191029501750391011515
:101450000025FF0507190029FF950675088100C0C2
:1014600011241FBECFEFCDBFDFE3DEBF00E00CBF16
:1014700010E2A0E0B0E2E2EFFCE400E00BBF02C04B
:1014800007900D92A834B107D9F723E2A8E4B0E29F
:1014900001C01D92A635B207E1F79DD30C947726C3
:1014A0000C9400001F93CF93DF93182F1F7090E0D0
:1014B00024E0959587952A95E1F730E3380FDAE037
:1014C0006D2F0E941D26C7E08C9F300D1124832FA5
:1014D0000E94C21320E3210F812F6D2F0E941D2631
:1014E0008C9F200D1124822FDF91CF911F910C949E
:1014F000C213D8DF809100200C94C2130F931F9366
:10150000CF93DF938B01EC01080F191FC017D10790
:1015100059F08991C7DF809100208823B9F3809129
:1015200000200E94C213F2CFDF91CF911F910F9143
:101530000895E4DF8CE797E00C94CC138F7020E3E0
:10154000280F90E06AE070E00E942926822F97E041
:10155000699F800D11240C94C2138170805D0C94DE
:10156000C21389E497E00E94DC138CEF96E00E949E
:10157000DC138AEB96E00E94DC138FE896E00E9471
:10158000DC138CE696E00E94DC138BE596E00E946B
:10159000DC1389E396E00E94DC1384E296E00E946B
:1015A000DC138BEF95E00E94DC138DEA95E00E943E
:1015B000DC138BE595E00E94DC138FEF94E00E9432
:1015C000DC1383ED94E00E94DC1381E794E00C943B
:1015D000DC1385E694E00C94CC13CF93DF93EC01FD
:1015E0008CE494E00E94CC13688170E0CE01DF911E
:1015F000CF919FCF1F93CF93DF931F92CDB7DEB7CD
:10160000182F85E394E069830E94CC13812F71DF4A
:101610008DE294E00E94CC136981862F6ADF85E217
:1016200094E00F90DF91CF911F910C94CC13EF9227
:10163000FF920F931F93CF93DF93CDB7DEB7C85CB4
:10164000D109CDBFDEBF7C01660F771F6F5F7F4F73
:1016500040E0CE0101960E945C148C01CE010196FF
:101660000E946D26FE01329620E030E020173107FF
:10167000F0F4DF0111978C9190ED980F9A3010F0F3
:1016800099EC980F408180ED840F8A3010F089EC3E
:10169000840FD901B695A795AE0DBF1D40E1949F6B
:1016A000800D11248C932E5F3F4F3296DFCFC801FF
:1016B00096958795C853DF4FCDBFDEBFDF91CF91A1
:1016C0001F910F91FF90EF900895BF92CF92DF92FC
:1016D000EF92FF920F931F93CF93DF93EC0185E17D
:1016E00094E00E94CC1364E070E0CE0107DF65E077
:1016F00070E0CE0108961DDF83E094E00E94CC13D9
:1017000064E070E0CE01049614DF8E8580FF0CC08B
:101710008CEE93E00E94CC1388898695C3DE89EE17
:1017200093E00E94CC130EC08CEB93E00E94CC138C
:10173000888983FF03C088EB93E002C082EB93E0CB
:101740000E94DC1387EA93E00E94CC138A898535D6
:1017500051F08A3A29F0811109C08AE893E008C063
:101760008DE993E005C081E993E002C080E793E052
:101770000E94DC1385E693E00E94CC138B898111D3
:1017800003C084E493E002C084E293E00E94DC138F
:1017900082E193E00E94CC13FE01EC5AFF4F80815E
:1017A00081DE8FE093E0F8D78FEF92E0F5D7FE016E
:1017B000EB5AFF4F808176DE8CEF92E0EDD784EE1E
:1017C00092E0EAD7FE01EA5AFF4F8081853519F48D
:1017D0008AED92E002C082ED92E0EED782EC92E0D8
:1017E000DBD7FE01E95AFF4F8081853519F488EB7C
:1017F00092E002C080EB92E0DFD786E992E0DCD78E
:101800008E010C5E1F4F7E0185E3E80EF11CB12CAA
:101810006E01E4E4CE0ED11C80E992E0BDD78B2DA1
:101820008DDE86E892E0B8D7F801808187DE8AE70E
:1018300092E0B2D7F801808182958F708EDE8EE6BD
:1018400092E0AAD7F801808182958695877085DE1F
:1018500080E692E0A1D7F8018081829586958695F1
:1018600083707BDE85E592E097D7F8018081881F41
:101870008827881F72DE82E492E08ED7E701A09766
:1018800088815CDE84E392E087D7888182958F70BF
:1018900055DE81E392E080D7F7E0FB1588F081E226
:1018A00092E07AD7F70131978081FCDD83E192E005
:1018B00073D7F7018081F6DD80E192E06DD70AC031
:1018C000FFE0BF1207C08CEF91E066D760E170E0E7
:1018D000C6012FDEB3940E5F1F4F82E0E80EF11CAD
:1018E000E0E1BE1299CFDF91CF911F910F91FF9050
:1018F000EF90DF90CF90BF900895EF92FF920F93FB
:101900001F93CF93DF93EC01162F2FEF83EC99E019
:10191000215080409040E1F700C0000012D7892B91
:1019200011F481E01BC011D7E82E8117D0F788830E
:10193000FF24F394EF1488F004D7892B91F38E01E0
:101940000F0D111D02D7F80180838FEB9DE50197E4
:10195000F1F700C00000F394EDCF80E0DF91CF916C
:101960001F910F91FF90EF9008952F923F924F9209
:101970005F926F927F928F929F92AF92BF92CF921F
:10198000DF92EF92FF920F931F93CF93DF93CDB728
:10199000DEB7C055D109CDBFDEBF7C01162F2A01AD
:1019A0003901DC01DC9011962C90B4E0BD1510F0EB
:1019B00082E0A9C0FC0192803380A480B580F5E06C
:1019C000DF1689F0DC0116960C911697013280F72C
:1019D0001796CE018196FC012E2F281B201720F48C
:1019E0002D912193F9CF00E04D2D50E0802F90E014
:1019F0009C012A5F3F4F241735072CF5D701A80F0C
:101A0000B91F1796CC901797E0E2EC1588F29E016B
:101A10002F5F3F4F61962EAF3FAF619720E030E0E0
:101A20002C1590F4BD01620F731FFB016085619658
:101A3000EEADFFAD619761936196EEAFFFAF619739
:101A40002F5F3F4FEDCFC12C6C2D70E09C01295FC3
:101A50003F4F260F371F24173507F4F4F701E80F1F
:101A6000F91FE60FF71F8084FDE0F81508F4A0CFFA
:101A7000FE01EF5BFF4F20E030E0860F971F8E0DD9
:101A80009F1D281550F4DC01A20FB31F19964C912D
:101A900041932F5F3F4FF5CF812CB701C3010E94C7
:101AA000CA152B2D30E0322F22272A0D311D5F92CF
:101AB0004F921F93FF92EF92DF92CE018F5B9F4F69
:101AC0009F938F93805491095C01DE0191967D0173
:101AD000432D692DC3010E943418182FCDBFDEBFDE
:101AE000D301ED91FC91222021F00088F189E02DB5
:101AF00003C00684F785E02DC3011995112311F069
:101B000083E001C080E0C05BDF4FCDBFDEBFDF916F
:101B1000CF911F910F91FF90EF90DF90CF90BF90EA
:101B2000AF909F908F907F906F905F904F903F907D
:101B30002F900895823EA1F1A0F4843D41F148F434
:101B4000823D09F445C000F581113FC08BE393E16C
:101B500041C0803EF9F008F5853DB9F58BEF92E183
:101B600039C0863E31F130F4843EE9F0F8F487E97B
:101B700092E130C0883E19F1F8F0803F19F1813FC1
:101B800021F587EB91E126C085E193E123C08AE04E
:101B900093E120C08CEC92E11DC089EB92E11AC068
:101BA0008AEA92E117C083E892E114C081E792E1EA
:101BB00011C08CE392E10EC089E192E10BC081E09B
:101BC00092E108C08CEE91E105C080EA91E102C08B
:101BD0008EE293E1F1C5CF93DF93CDB7DEB7C65365
:101BE000D140CDBFDEBFCE01825D9E4F0E94831CDF
:101BF000CE01825D9E4F0E94891C3DD6AAD510E081
:101C0000C05DDE4F1882C053D1404E0193943E0117
:101C100080EE680E711C2E0195E6490E511CADEB4D
:101C2000B0E0AC0FBD1F1196CF5CDE4FA883B98327
:101C3000C153D140F201B096CC5CDE4FE883F9830A
:101C4000C453D1401E01F0EE2F1AFEEF3F0A1CD6FE
:101C500084D66B017C01673071058105910558F0D0
:101C6000C05DDE4F8881C053D14081110BC080E937
:101C700091E1A2D507C0C05DDE4F9881C053D1402D
:101C8000992389F0A1E0C05DDE4FA883C053D14005
:101C9000B7E0CB16D104E104F10428F4C05DDE4FB7
:101CA0001882C053D1408CD5CD5CDE4F8883C3539E
:101CB000D140882379F011110DC0EFEFF1EE24E04F
:101CC000E150F0402040E1F700C000008DE891E1D4
:101CD00063D547DC36D5892B09F422C536D58C016E
:101CE0008D3F41F564E6CE01019607DE182F811184
:101CF0000BC09E01225D3E4FAE0143545F4F63E235
:101D0000CE01019632DE182F812F3CD5111108C566
:101D1000C354DF4F8881CD5BD040181708F000C551
:101D2000EDEBF0E0EC0FFD1FE10FF11D80812AD5F6
:101D30001F5FEECF80914820882319F083E891E15E
:101D400002C089E791E138D5C80199278836910505
:101D500009F464C224F58C34910509F46FC464F469
:101D60008F33910509F4C7C48934910509F4C6C4B9
:101D70000D9709F0D5C4BFC48436910509F4B6C1E6
:101D80002CF48336910509F425C1CAC48536910522
:101D900009F446C38736910509F4F4C1C1C48237FA
:101DA000910509F40AC39CF48D36910509F479C2B2
:101DB0002CF48B36910509F41FC4B2C48E369105FC
:101DC00009F4C3C28F36910509F472C0A9C48537DE
:101DD000910509F4D6C37CF58337910509F0A0C4B9
:101DE00082E691E1E9D4BE0163547F4FCE01825D6A
:101DF0009E4FD0D6BE0163547F4FCE01825D9E4F71
:101E00000E94D917CA5CDE4F8883C653D140E1DBFC
:101E1000CA5CDE4F8881C653D1408CDE8AE391E1F3
:101E2000CBD48CE291E1B8D469E070E0CE01835468
:101E30009F4F7FDB2DC08637910529F087379105AD
:101E400009F430C36DC482E09FE0B6D4BE01635490
:101E50007F4FCE01825D9E4F9DD6AE0143545F4FB2
:101E6000BE016F5F7F4FCE01825D9E4F0E94831740
:101E7000CA5CDE4F8883C653D140ABDBCA5CDE4F01
:101E80008881C653D14056DECE0183549F4FA5DBD7
:101E900080914820882331F0CE01825D9E4F0E94C0
:101EA000271B3EC4CE01825D9E4F0E941F1B38C47B
:101EB00082E091E181D48DDB80E2D2011D928A958E
:101EC000E9F7BE0163547F4FCE01825D9E4F62D61B
:101ED000182F811169C000E010E020E8AE014354E2
:101EE0005F4FBE016F5F7F4FCE01825D9E4F0E94AC
:101EF0009D17182F811158C080E2CF5CDE4FE8811A
:101F0000F981C153D140D20101900D928A95E1F738
:101F100000E210E020E8AE0143545F4FBE016F5F66
:101F20007F4FCE01825D9E4F0E949D17182F811119
:101F30003BC080E2CF5CDE4FE881F981C153D140E4
:101F4000CC5CDE4FA881B981C453D14001900D9281
:101F50008A95E1F790E4E92EF12C870120E0AE01AB
:101F600043545F4FBE016F5F7F4FCE01825D9E4F36
:101F7000E4D7182F811118C0F201EE0DFF1DCF5CC0
:101F8000DE4FA881B981C153D1404D915D916D91D2
:101F90007C914083518362837383B4E0EB0EF11C28
:101FA000E8E5EE16F104C9F680914820882331F067
:101FB000CE01825D9E4F0E94271B05C0CE01825D2F
:101FC0009E4F0E941F1B812FB5DD1111A9C3C201B5
:101FD0007CDBA6C384ED90E1EFD384EB90E1ECD3FE
:101FE00061E070E0CE01019622DB813011F429819D
:101FF00001C020E081E990E1CA5CDE4F2883C6532E
:10200000D140DAD361E070E0CE01019610DBCA5C0A
:10201000DE4F2881C653D140813011F4098102C0BE
:1020200000E010E083E690E1CA5CDE4F2883C653EF
:10203000D140C2D310E2D401E12F1D92EA95E9F715
:1020400060E270E0C401F3DA86E390E1B5D3D30136
:102050001D921A95E9F760E270E0C301E8DA8EE0BC
:1020600090E1AAD3F1018DE011928A95E9F76DE034
:1020700070E0C101DCDACA5CDE4F2881C653D14072
:10208000622F88E2B7DA802F34DA87E090E184D3D8
:1020900060E270E0C4014DDA80E090E17DD360E25F
:1020A00070E0C30146DA89EF9FE076D36DE070E01F
:1020B000C1013FDA8EDABE0163547F4FCE01825DEB
:1020C0009E4F68D5510163017401CA5CDE4F2881BF
:1020D000C653D140AE0143545F4FBE016F5F7F4F87
:1020E000CE01825D9E4F0E940C19EFC28DEA9FE0E7
:1020F00063D381E89FE060D361E070E0CE01019698
:1021000096DA813011F4D98001C0D12C87E59FE0A7
:1021100053D361E070E0CE01019689DA813011F489
:10212000098102C000E010E082E29FE045D380E236
:10213000D4011D928A95E9F760E270E0C40177DA74
:102140006D2D8CE157DA802FD4D98BE19FE024D319
:1021500060E270E0C401EDD93CDABE0163547F4F08
:10216000CE01825D9E4F16D574012D2DAE014354D4
:102170005F4FBE016F5F7F4FCE01825D9E4F0E9419
:102180006419A3C28DEA9EE017D38DE69EE014D3B6
:1021900061E070E0CE0101964ADA813011F4D98015
:1021A00001C0D12C8DE39EE007D361E070E0CE0149
:1021B00001963DDA813011F4098102C000E010E09F
:1021C00085EF9DE0F9D2F401108211821282138210
:1021D00064E070E0C4012BDA6D2D85E10BDA802F0D
:1021E00088D98EEE9DE0D8D264E070E0C401A1D918
:1021F000F0D9BE0163547F4FCE01825D9E4FCAD499
:1022000074012D2DAE0143545F4FBE016F5F7F4FB0
:10221000CE01825D9E4F0E94971957C282EA9DE0CF
:10222000CBD282E89DE0C8D261E070E0CE01019699
:10223000FED9813011F4F98001C0F12C8EE59DE0CA
:10224000BBD262E070E0CE010196F1D9823041F458
:10225000098110E0102F00278A81080F111D02C08C
:1022600000E010E06F2D81E1C5D9812F42D9802F88
:1022700019D98BE59DE090D2ACD9BE0163547F4F54
:10228000CE01825D9E4F86D42F2DAE0143545F4F09
:10229000BE016F5F7F4FCE01825D9E4F0E94CF19BE
:1022A00014C280E19DE088D280EF9CE085D261E09D
:1022B00070E0CE010196BBD9813011F4D98001C004
:1022C000D12C8CEC9CE078D262E070E0CE010196DB
:1022D000AED9823041F4098110E0102F00278A81A5
:1022E000080F111D02C000E010E085EA9CE064D2F6
:1022F00080E2D4011D928A95E9F760E270E0C401A2
:1023000096D96D2D88E076D9812FF3D8802FF1D81A
:102310008EE99CE041D260E270E0C4010AD959D94B
:10232000BE0163547F4FCE01825D9E4F33D4740152
:102330002D2DAE0143545F4FBE016F5F7F4FCE0125
:10234000825D9E4F0E94151AC0C187E59CE034D281
:1023500085E39CE031D261E070E0CE01019667D95F
:10236000813011F4F98001C0F12C84EF9BE024D27C
:1023700080E2F40111928A95E9F760E270E0C4010D
:1023800056D96F2D86E136D98FEE9BE015D221D933
:10239000BE0163547F4FCE01825D9E4FFBD384010B
:1023A0002F2DAE0143545F4FBE016F5F7F4FCE01B3
:1023B000825D9E4F0E944E1A88C183ED9BE0FCD146
:1023C00081EB9BE0F9D161E070E0CE0101962FD95D
:1023D000813011F4298101C020E0622F8BE1CA5CB9
:1023E000DE4F2883C653D14005D98CEA9BE0E4D167
:1023F000F0D8BE0163547F4FCE01825D9E4FCAD399
:10240000CA5CDE4F2881C653D140AE0143545F4FB2
:10241000BE016F5F7F4FCE01825D9E4F58D555C183
:102420008AE99BE0C9D185E39BE0C6D161E070E019
:10243000CE010196FCD8813011F4F98001C0F12C55
:1024400081E19BE0B9D162E070E0CE010196EFD866
:10245000823041F4098110E0102F00278A81080F93
:10246000111D02C000E010E06F2D82E0C3D8812F63
:1024700040D8802F17D88EE09BE08ED1AAD8BE011D
:1024800063547F4FCE01825D9E4F84D32F2DAE01CA
:1024900043545F4FBE016F5F7F4FCE01825D9E4F01
:1024A0004CD513C18DEF9AE087D189EC9AE084D1A5
:1024B00088E79AE081D161E070E0CE010196B7D85B
:1024C000813011F4B98001C0B12C84E59AE074D157
:1024D00062E070E0CE010196AAD8823041F4098111
:1024E00010E0102F00278A81080F111D02C000E0A4
:1024F00010E08DE29AE060D1E0E2FE2ED401EF2DF3
:102500001D92EA95E9F760E270E0C40190D88AEE86
:1025100099E052D1D3011D92FA94E9F760E270E09C
:10252000C30185D86B2D82E165D8812F0E94790A7D
:10253000802F0E94790A83EE99E02ED160E270E04C
:10254000C4010E947E0A8CED99E026D160E270E021
:10255000C3010E94990A3DD8BE0163547F4FCE014A
:10256000825D9E4F17D3630174012B2DAE0143543E
:102570005F4FBE016F5F7F4FCE01825D9E4FE5D7FB
:10258000A4C087E999E018D189E599E015D161E007
:1025900070E0CE0101964BD8813011F4F98001C072
:1025A000F12C84E399E008D161E070E0CE0101965E
:1025B0003ED8813011F4098102C000E010E06F2D97
:1025C00080E218D8802F0E94520A81E399E0E4D07B
:1025D00000D8BE0163547F4FCE01825D9E4FDAD298
:1025E0002F2DAE0143545F4FBE016F5F7F4FCE0171
:1025F000825D9E4F8ED769C081E299E0DDD00E9456
:10260000E90ABE0163547F4FCE01825D9E4FC2D264
:10261000182F80914820882331F0CE01825D9E4F93
:102620000E94271B05C0CE01825D9E4F0E941F1B8A
:10263000812F80DA8DEF98E0BFD057C084EA98E010
:10264000BBD086E498E0B8D061E070E0CE0101969E
:102650000E94170B813011F4F98001C0F12C85EF35
:1026600097E0AAD062E070E0CE0101960E94170BBD
:10267000823041F4098110E0102F00278A81080F71
:10268000111D02C000E010E06F2D87E10E94FA0AE0
:10269000812F0E94790A802F0E94520A82EF97E0D0
:1026A0007BD00E94E90ABE0163547F4FCE01825D58
:1026B0009E4F70D22F2DAE0143545F4FBE016F5F0E
:1026C0007F4FCE01825D9E4F8AD6182F8091482081
:1026D000882329F0CE01825D9E4FB9D704C0CE0178
:1026E000825D9E4FACD7812F25DACE0183549F4F58
:1026F0000E94ED0A15C00E94B10A12C08CE897E052
:102700004BD080914820882329F01092482085E8FA
:1027100097E005C081E0809348208FE797E04CD098
:1027200006D0CD5CDE4F1881C353D14090CA81E101
:1027300090E20E94F12281E090E20E9455250C94E3
:10274000B11D81E190E20C940C2381E190E20C94A4
:1027500053230F931F93CF93DF9381E190E20E9465
:102760000C238C01C0E0D0E0C017D10734F481E124
:1027700090E20E9453232196F7CFDF91CF911F91D2
:102780000F910895682F81E190E20C948C22BC0196
:1027900081E190E20C946722CF93DF93EC01CE01AC
:1027A000FE012491222329F02196FC018491EADF85
:1027B000F6CFDF91CF910895EFDF84E493E1ECCF82
:1027C000809121208170089580E18093550080914F
:1027D00050008061809350008091510084FFFCCFB5
:1027E0002FB7F89434E088ED90E0A0E4B0E01BBE91
:1027F000FD0184BF30832FBF8FE39FE10197F1F785
:1028000000C0000080914000809150008260809361
:1028100050008091510081FFFCCF80915600846070
:10282000809356008BE18093650087EB8093660070
:1028300082E08093CA01EDE1F0E0E491E093620070
:10284000ECE1F0E0E491E09363001092CA0181E0D2
:102850008093600087E08093A2008FE080938106E0
:102860008093860680E88093A20688E18093B7066D
:102870000E949F2127C1A8DFE0E8F6E08FE0868371
:1028800081E08583789408958091A80687FD11C022
:102890008091502081110FC063D160934C207093C0
:1028A0004D2080934E2090934F2081E080935020C4
:1028B0000895109250200895BF92CF92DF92EF9228
:1028C000FF920F931F93CF93DF936C018B01B42E74
:1028D000C0E0D0E00150110934DF892BF9F035DF79
:1028E0009C0133272D30310529F12F37310519F09F
:1028F0002830310529F421978CE290E248DF0EC0A0
:10290000C017D10758F47E012FEFE21AF20ACC0D5E
:10291000DD1D8883B1108AE235DFE70108DFB4DF0F
:102920008FEF99EF20E0815090402040E1F700C008
:102930000000D2CFF601EC0FFD1F10828AE022DFEB
:102940008DE020DFCE01DF91CF911F910F91FF909D
:10295000EF90DF90CF90BF9008950F931F938091D9
:102960005020882371F0FCD000914C2010914D2014
:1029700020914E2030914F20601B710B820B930BE6
:1029800003C060E070E0CB011F910F910895E0E873
:10299000F6E08FE0868386E085830895E0E8F6E040
:1029A0008FE0868381E085830895CF9381E090E274
:1029B0000E944225C82F81E190E20E94422290911C
:1029C000C80490689093C804882321F0CC2311F0A8
:1029D0008AE001C085E09FE090938606809385069B
:1029E000CF91089581E190E20E94A62381E090E2D8
:1029F0000C94442480910F2090911020009729F08E
:102A0000019780930F209093102008950F931F93A8
:102A100080914920882349F080914B20F9018283DD
:102A200080914A2080831092492088E090E0F8014C
:102A30008083918380E01F910F9108950895292F3D
:102A4000332723303105B9F05CF42130310569F1C9
:102A50002230310579F58FE590E020EB33E12EC08F
:102A600021323105E9F02232310521F58FE390E082
:102A700021E234E123C099278130910541F0823071
:102A8000910541F0892BB1F4ECEAF3E105C0E2E9EC
:102A9000F3E102C0EAE4F3E1849190E09F010EC00B
:102AA00089E090E02FEF33E109C082E190E02FE070
:102AB00034E104C080E090E020E030E0FA012083BF
:102AC000318308951092592010925A2010925B2061
:102AD00010925C2088ED84BF8091500084608093C8
:102AE000500085E08093430081E080930004809152
:102AF000010480FDFCCF8AE090E080930A0490936B
:102B00000B048091020483608093020410920804F5
:102B10001092090408951F920F920FB60F9211247C
:102B20008F939F93AF93BF938091592090915A2098
:102B3000A0915B20B0915C200196A11DB11D8093F6
:102B4000592090935A20A0935B20B0935C20BF91B2
:102B5000AF919F918F910F900FBE0F901F9018957E
:102B60006091592070915A2080915B2090915C2057
:102B70000895611571058105910559F0EFE3FFE1B5
:102B80003197F1F700C00000615071098109910986
:102B9000F0CF08950F931F93CF93DF938C01EB0138
:102BA000DC01ED91FC910484F585E02D19958111EE
:102BB00028C0D801ED91FC910084F185E02DAE0193
:102BC00064E0C801199581111CC08881843059F4D2
:102BD0008981813151F48A81833349F48B81833433
:102BE00031F480E00EC084EE03C080EF01C085EEBA
:102BF000BFEF25ED36E0B15020403040E1F700C096
:102C00000000DF91CF911F910F9108951F93CF93F3
:102C1000DF93C42FFA0180E090E04E2F4C1B461743
:102C2000D8F4B19148E050E071E0D92FDD1FDD27E5
:102C3000DD1F880F991FA1E0172F1B2309F4A0E0C7
:102C4000AD1719F0A5E08A279058770F4150510928
:102C50004115510551F7E1CFF90180839183DF914F
:102C6000CF911F910895FF920F931F93CF93DF93FE
:102C70001F921F92CDB7DEB78B01FB01F080FA9453
:102C8000FA949E012F5F3F4FAB016F2DBFDFF8011C
:102C9000EF0DF11D99818081981306C09A81818181
:102CA000981302C080E001C085EE0F900F90DF9175
:102CB000CF911F910F91FF9008952F923F924F92C5
:102CC0005F926F927F928F929F92AF92BF92CF92BC
:102CD000DF92EF92FF920F931F93CF93DF9300D079
:102CE00000D0CDB7DEB76C014B01142F5901202E57
:102CF0000E2DDB01EC906EEF6E0DDC01ED91FC9181
:102D00000190F081E02D6D83199528EE33E0029F4C
:102D10003001039F700C1124680E791E6D8194019F
:102D2000260F311DA401C60171DFB3E0FB2E00EEBA
:102D3000312C412C512CAC82FA9409F45CC0011165
:102D400040C03DC069827A82D601ED91FC91008439
:102D5000F185E02DA501612FC6011995082FD60137
:102D6000ED91FC910190F081E02DC601199549810A
:102D70005A81481B590B49835A8349815A81D6018C
:102D8000ED91FC910190F081E02DC6014D835E83B1
:102D900019954D815E818417950708F071C0073E33
:102DA00099F2043E09F43DC0B501C6015CDF082F6D
:102DB000811152C0F5018081853008F443C080E064
:102DC00070C0D601ED91FC910284F385E02DA40141
:102DD0006E2DC6011995082F882379F0D601ED9143
:102DE000FC910288F389E02DA501612FC601199598
:102DF000873E09F0A1CF802F54C0C201B101B9DED6
:102E0000B3E0BB83BB81B150BB83BB2309F494CF38
:102E1000F5018E2F9C81891B811708F093CF1192A9
:102E2000F8CFD601ED91FC910288F389E02DA50140
:102E3000612FC6011995882329F3883E09F47CCFB8
:102E400084EE2FC081818330B9F08F30B9F08F3F8D
:102E500009F0B5CF04ED70CFD601ED91FC91028859
:102E6000F389E02DA501612FC6011995882351F240
:102E7000883E09F461CFBFCF82ED13C083ED11C04E
:102E8000073E09F08ECFD601ED91FC910288F389BF
:102E9000E02DA501612FC6011995873E09F04CCFA1
:102EA00087EE2696CDBFDEBFDF91CF911F910F91A8
:102EB000FF90EF90DF90CF90BF90AF909F908F905A
:102EC0007F906F905F904F903F902F900895EF927A
:102ED0000F93FB01309799F04115510581F0223095
:102EE00070F427E020832BE1218312821482138265
:102EF00009E2E02E0AE09A0143E2DFDE01C082EE41
:102F00000F91EF900895EF920F93FB019A01309784
:102F100081F04115510569F047E0408340E341836A
:102F200014821382128242E0E42E00E047E0C5DE04
:102F300001C082EE0F91EF900895EF920F931F93CF
:102F4000FB01309789F14115510571F1322F3C7722
:102F500059F51695079516950795322F337021F47C
:102F60000032110508F50BC0313021F40031110594
:102F7000D8F405C0323019F400381105A8F437E050
:102F8000308332E0318322830F770383148227FF5B
:102F900002C063E201C067E074E0E72E00E09A013E
:102FA000462FBF018ADE01C082EE1F910F91EF9084
:102FB0000895AF92BF92CF92DF92EF92FF920F935C
:102FC0001F93CF93DF93CDB7DEB72E97CDBFDEBF74
:102FD0006C017B0100E010E020E0AE014F5F5F4F2D
:102FE000BE01685F7F4FA9DF811130C0D7015E014C
:102FF00086E0A80EB11CFE01329681918D93EA15F0
:10300000FB05D9F708E010E020E0AE014F5F5F4F0D
:10301000BE01685F7F4FC60190DFD7011496FE01A5
:10302000329691919D93EA15FB05D9F781110EC057
:103030000CE010E020E0AE014F5F5F4FBE01685F23
:103040007F4FC6017ADF9A81F70190872E96CDBF18
:10305000DEBFDF91CF911F910F91FF90EF90DF9036
:10306000CF90BF90AF9008952F923F924F925F9272
:103070006F927F928F929F92AF92BF92CF92DF9288
:10308000EF92FF920F931F93CF93DF931F921F92A4
:10309000CDB7DEB71C01702FC7014B8C5C8C1D8D2A
:1030A000663109F440C0B0F46830C1F130F46130E9
:1030B000F1F1623009F441C049C0623109F441C004
:1030C000653119F1613109F041C013E2FCE2EF2EE4
:1030D0000AE14DC06C31E9F140F46731D1F06B3158
:1030E000A9F513E2B9E2EB2E26C0683241F0603355
:1030F00051F0603259F514E0A3E0EA2E25C014E047
:10310000BBE1EB2E0EC017E013C014E0A1E2EA2EE3
:1031100012C014E0E4E1EE2E04E029C013E258E10D
:10312000E52E0BE024C04330C9F414E018C014E0CD
:1031300002E0E02E1BC00AE01AC047FF14C013E2F1
:1031400013C014E0F7E2EF2E03E011C0E6E4EE2E28
:103150000DC014E052E3E52E0DE009C013E208E2D1
:10316000E02E05E104C017E0B4E0EB2E00E0FC2CFB
:10317000F80CF70E57E05F0DF20150836183428334
:1031800023833201F5E06F0E711CF2013483772343
:1031900069F0272F30E0A901BC01C30129833A83DC
:1031A0000E945D2629813A81620E731ECC2041F077
:1031B000D12CA601B501C3010E945D266C0C7D1CBB
:1031C000882049F0912CA401688D798DC3010E945B
:1031D0005D26680C791C65E06F0D9301A201C101A9
:1031E00015DD2E8D3F8D412FB201C10166DD0F909F
:1031F0000F90DF91CF911F910F91FF90EF90DF9093
:10320000CF90BF90AF909F908F907F906F905F9086
:103210004F903F902F900895AF92BF92CF92DF9240
:10322000EF92FF920F93CF93DF93EB01209709F476
:1032300040C041155105E9F1C114D104D1F1A114E7
:10324000B104B9F1322F3762373299F5003188F580
:1032500034E5388338E2398327722A830B831C8252
:10326000DB01159620E2E114F10429F4FD0111922D
:103270002A95E9F705C0F70101900D922A95E1F72B
:10328000DE01959620E2F60101900D922A95E1F774
:10329000DE01AB5BBF4F2DE0F50101900D922A9549
:1032A000E1F70BE1E02E0BE09A0144E0BE0105DD01
:1032B00001C082EEDF91CF910F91FF90EF90DF90F0
:1032C000CF90BF90AF900895EF92FF920F93CF935E
:1032D000DF93EB01209721F14115510509F1322FC0
:1032E0003B7FF1F40031E0F43CE139832A830B8326
:1032F0001C82E114F10451F020E2F701DB01159684
:1033000001900D922A95E1F727E201C027E028837A
:1033100022E3E22E0DE09A0144E0BE01CEDC01C0C2
:1033200082EEDF91CF910F91FF90EF900895EF9291
:10333000FF920F931F93FB01309759F141155105EF
:1033400041F1233030F5213019F4023010F504C07A
:10335000223011F40031E8F435E131832283038314
:103360001482E114F10459F0D7010D911D912D91B2
:103370003C9105831683278330872BE001C027E02B
:10338000208331E2E32E0AE09A0144E0BF0195DC9C
:1033900001C082EE1F910F91FF90EF900895EF9280
:1033A0000F931F93FB013097A9F04115510591F040
:1033B000322F3B7879F437E0308331E13183228357
:1033C000038314836CE2E62E0AE19A0143E2BF0113
:1033D00074DC01C082EE1F910F91EF900895EF927F
:1033E0000F931F93FB013097D9F041155105C1F0A0
:1033F000322F3E77A9F427FF03C00115110581F490
:1034000037E0308337E131832178228303831483CB
:1034100074E1E72E04E09A0144E0BF014EDC01C0F4
:1034200082EE1F910F91EF900895EF92FF920F930C
:103430001F93CF93DF93EB01209741F14115510585
:1034400029F1322F387811F5322F317020FD03C069
:10345000E114F104D9F067E0688368E069832A83A6
:103460000B831C8331110AC020E2F701DE0115969F
:1034700001900D922A95E1F727E22883E8E1EE2EEC
:103480000BE09A0143E2BE0118DC01C082EEDF913D
:10349000CF911F910F91FF90EF900895EF920F93AE
:1034A0001F93CF93DF93EB01F801209759F141155A
:1034B000510541F1309731F1243020F5223011F1DE
:1034C00036E139832A831C821B82DB011596233067
:1034D00049F024E101900D922A95E1F72BE1288330
:1034E00063E208C020E201900D922A95E1F727E2FD
:1034F000288364E0F8E2EF2E05E19A01462FBE0131
:10350000DCDB01C082EEDF91CF911F910F91EF9034
:103510000895EF920F93FB01309799F041155105F3
:1035200081F0223070F437E0308330E2318322833F
:1035300003831482B3E0EB2E03E09A0144E0BDDB89
:1035400001C082EE0F91EF9008956F927F928F925B
:103550009F92AF92BF92CF92DF92EF92FF920F9322
:103560001F93CF93DF934C01EB015A01209709F48D
:1035700053C04115510509F44FC0E114F10409F499
:103580004BC0822F8C7309F047C01695079516958E
:103590000795822F837021F400321105E8F50BC0E6
:1035A000813021F400311105B8F505C0823019F4DD
:1035B0000038110588F582E189832A830F770B8310
:1035C0003E0185E0680E711C1C8227FF02C000E2EC
:1035D00001C004E010E0A801B701C3010E945D260C
:1035E000B301600F711FC114D10449F080E2F601EC
:1035F000DB0101900D928A95E1F7605E7F4F6C1BB5
:103600007D0B6E5F688317E2E12E03E0950144E0D5
:10361000BE01C40152DB01C082EEDF91CF911F9148
:103620000F91FF90EF90DF90CF90BF90AF909F9061
:103630008F907F906F9008958CED91E00895DC015C
:10364000ED91FC910680F781E02D6CEC1994DC0182
:10365000ED91FC910680F781E02D6BEB1994CF93EF
:10366000DF931F92CDB7DEB76983DC01ED91FC914A
:103670000480F581E02DAE014F5F5F4F61E0199549
:103680000F90DF91CF910895CF93F89484E08093C9
:10369000220670E07617B9F128E030E0C1E0FA01C7
:1036A000E70FF11D8EEF91E00197009751F1A09186
:1036B0002806A2FDF9CFA0912806A2FD04C001971B
:1036C0000097C9F71EC084E390E0A0912806A2FFEE
:1036D0000CC001970097C9F780818C2B808309C0AB
:1036E000DC011197892B29F0CD01A0912806A2FFBA
:1036F000F7CFCC0F215031092115310599F67F5FA5
:10370000C9CF81EF01C080E07894813F11F471113D
:1037100089EFCF910895FF920F931F93CF93DF937B
:103720008C01F62EEA01942FEC2FFD2F8E2F891B92
:103730008F1510F41192FACFD801ED91FC9106800B
:10374000F781E02D68E8C8011995D801ED91FC9149
:103750000280F381E02DAE016F2DC80119958823F9
:1037600011F0893F49F48881843010F484EE09C057
:10377000F816E0F380E005C0813F11F487EE01C048
:1037800086EEDF91CF911F910F91FF900895EF92F8
:10379000FF921F93CF93DF931F921F92CDB7DEB797
:1037A0007C01162FDC01ED91FC910680F781E02D64
:1037B00067E749835A83199549815A81811110C05D
:1037C000D701ED91FC910480F581E02D612FC701B7
:1037D0000F900F90DF91CF911F91FF90EF90199470
:1037E00080EF0F900F90DF91CF911F91FF90EF909E
:1037F0000895E0E2F6E084E0818386838FEE91E035
:103800000197F1F700C0000084E085838FE19EE41A
:103810000197F1F700C0000080E00895F89484E07B
:103820008093210687EE92E00197F1F700C0000037
:1038300030E024E03617C1F188E090E071E0FA0151
:10384000E30FF11DA081A72320932606AA2361F090
:10385000AAE2AA95F1F700C020932506AFEDB0E0EB
:103860001197F1F700C015C0BAE2BA95F1F700C0A0
:1038700020932506AAE2AA95F1F700C02093260618
:10388000BAE2BA95F1F700C020932506A5EDAA95F6
:10389000F1F70000B5E1BA95F1F70000770F019755
:1038A000009781F63F5FC6CF789480E008950F932C
:1038B0001F93CF93DF93EC018A012FEF8CE498E004
:1038C000215080409040E1F700C00000E881F9817C
:1038D0000084F185E02DCE011995882371F0E881EF
:1038E000F9810684F785E02DCE011995B801CE0146
:1038F00051D9811103C088EE01C080E0DF91CF91E2
:103900001F910F91089524E330E2FC01208331835D
:103910000895E0E2F6E088E08183868382E0818397
:10392000858308950F931F93CF93DF93CDB7DEB7B1
:10393000EA97CDBFDEBF02E610E2ECD2F801819338
:103940008F01F0E20A361F07C1F74CD856D38823FF
:1039500009F4F9C08091622090916320953009F4B8
:1039600071C030F4913069F168F0933051F1EBC0DF
:10397000983009F4C4C0993009F4CAC0963009F0EF
:10398000E2C074C0803891F0823809F0DCC08091C8
:1039900066208F70DFD2E0916C20F0916D20118154
:1039A00012FB112710F980E0D5D206C010915E20DD
:1039B00080915F208111126039D3812FBBD280E0CA
:1039C000A3C0282F2D7F09F0BEC0882319F08230B4
:1039D00061F0B9C080916420813009F0B4C09330A7
:1039E00009F080E080935F2029C0809164208111DC
:1039F00025C0109166201F7009F4A5C0812FAAD29E
:103A000080916320833011F43DD318C0A0916C20C5
:103A1000B0916D2011968C9111978B7F11968C939C
:103A200024E8129FF0011124E055FF4D1082E0912F
:103A30006C20F0916D2080818E7F808380E08AD21F
:103A4000F5D264C081117FC0109164201F77EED23F
:103A5000EED3AED28823E9F31093C304112311F0FF
:103A600083E001C082E0809361206DC08058823085
:103A700008F069C080916420909165208C3DE3E05E
:103A80009E0761F583E08A838AE389834FB7F894C0
:103A9000DE01139620E038E052E05093CA01E32F94
:103AA000F0E0E4911092CA0120FF03C0E295EF70AC
:103AB0003F5FEF708E2F90E0EA3010F0C79601C0A4
:103AC000C0968D939D932F5F2C3139F74FBFAED2A7
:103AD0006AE370E0CE010196A0D00FC0AE014F5F47
:103AE0005F4F609166200E941F158C01009759F16D
:103AF0009DD2B80189819A8169D1FDD124C08038D5
:103B000011F594D280915D2015D2DCD190D31BC0E9
:103B1000811119C0809164208230A8F487D28091ED
:103B2000642080935D2083D380915D20811104C047
:103B30008091C304882311F084E001C081E0809368
:103B400061200E94D51459D2882311F06FD29AD2E5
:103B5000EA96CDBFDEBFDF91CF911F910F910895FF
:103B60000895CF9380916120882351F0C0916E20F9
:103B700080E0F0D142D28111D5DE8C2FCF91EAC105
:103B8000CF910895CF92DF92EF92FF920F931F9300
:103B9000CF93DF937C018B01EA0160D3811134C0A4
:103BA000209731F088819981081B190BE80EF91EC6
:103BB000C12CD12C0115110531F180916A20909111
:103BC0006B20FC01EF5BFF4F20813197808128172C
:103BD00080F078D1C6DF209741F0888199818C0DE3
:103BE0009D1D8883998385E00FC038D3882311F306
:103BF0000BC0F70181917F019DD101501109FFEFA9
:103C0000CF1ADF0AD7CF80E0DF91CF911F910F91BC
:103C1000FF90EF90DF90CF900895DF92EF92FF92A8
:103C20000F931F93CF93DF93182F092FEB018091F0
:103C30006E2080688FD120916820309169202C17E8
:103C40003D0720F0209719F43DD101C0E901E12E94
:103C5000F02ED12C209709F440C080916120811171
:103C600002C082E04CC0853011F483E048C0C5D169
:103C7000882311F081E043C0A7D181113CC098D1C5
:103C8000882341F320916E2080916A2090916B20CF
:103C9000FC0127FF05C0EF5BFF4F008110E013C060
:103CA000E05CFF4F00813196808110E0081B110914
:103CB0000AC00830110548F4F70181917F013AD11B
:103CC00021970F5F1F4F2097A1F7DD24D394083071
:103CD000110509F0D12CF6D0BDCFD110BECF0BC04D
:103CE00080916120882309F4BCCF853009F4BDCFD1
:103CF00084D18111BFCF68D1882391F380E0DF9117
:103D0000CF911F910F91FF90EF90DF900895EF9268
:103D1000FF920F931F93CF93DF93F82EE92E8B0121
:103D200080916E208F7716D10115110509F4E3D02B
:103D30000115110509F43CC080916120811102C078
:103D400082E03DC0853011F483E039C056D1811145
:103D500033C03AD1882381F3CF2DDE2DFC2EED2EFA
:103D600080916E2040916A2050916B20FA0187FF6C
:103D700005C0EF5BFF4F208130E008C0E05CFF4FE3
:103D800020813196808130E0281B3109232B79F284
:103D9000C1D08993FC2EED2E01501109011511059A
:103DA000E9F6C5CF80916120882351F2853061F218
:103DB000FFD08823B9F302C081E001C080E0DF9129
:103DC000CF911F910F91FF90EF900895DF92EF92A6
:103DD000FF920F931F93CF93DF93182F092FEB01BF
:103DE00080916E208068B6D0209168203091692043
:103DF0002C173D0720F0209719F464D001C0E90189
:103E0000E12EF02ED12C209709F442C08091612040
:103E1000811102C082E04EC0853011F483E04AC0B7
:103E2000ECD0882311F081E045C0CED081113EC096
:103E3000BFD0882341F320916E2080916A20909119
:103E40006B20FC0127FF05C0EF5BFF4F008110E0F6
:103E500015C0E05CFF4F00813196808110E0081BA7
:103E600011090CC00830110558F4F701849162D093
:103E7000FFEFEF1AFF0A21970F5F1F4F209791F76F
:103E8000DD24D3940830110509F0D12C1BD0BBCF11
:103E9000D110BCCF0BC080916120882309F4BACF28
:103EA000853009F4BBCFA9D08111BDCF8DD0882337
:103EB00091F380E0DF91CF911F910F91FF90EF90F0
:103EC000DF900895E0916C20F0916D20A0916A2020
:103ED000B0916B20AF5BBF4F8C9190E08283938356
:103EE00080818D798083E0916A20F0916B20EF5B77
:103EF000FF4F10820895E0916C20F0916D20808139
:103F00008D798083E0916A20F0916B20EF5BFF4F09
:103F10001082089580916A2090916B20FC01EF5BE4
:103F2000FF4F208131E0320F3083FC01E20FF11DA1
:103F30008081089520916A2030916B20F901EF5B18
:103F4000FF4F908141E0490F4083F901E90FF11DD6
:103F50008083089580936E20482F4F7094E8499F86
:103F60009001112421593F4D6091C6047091C704FE
:103F700090E1499FA001112487FF0FC02E5B3F4FA6
:103F800020936A2030936B20CA010896860F971FF2
:103F900080936C2090936D20089520936A20309335
:103FA0006B20460F571F40936C2050936D2008954F
:103FB00080916E208068CEDFE0916C20F0916D20C2
:103FC000808186958170089580916E208F77C2DF01
:103FD000E0916C20F0916D20808185FF0CC02091D4
:103FE0006A2030916B2082819381F901E05CFF4F60
:103FF000808381E0089580E0089580916E208F771E
:10400000A9DFE0916C20F0916D20808184FF0CC0CD
:1040100020916A2030916B2082819381F901E05CCC
:10402000FF4F808381E0089580E0089580916E20A5
:104030008F7790DFE0916C20F0916D2080818D78FA
:104040008083E0916C20F0916D208081816080837D
:10405000E0916A20F0916B20EF5BFF4F108280911E
:104060006E20806877DFE0916C20F0916D20808178
:1040700081608083E0916A20F0916B20EF5BFF4FBD
:1040800010820895E0916C20F0916D208181846010
:104090008183E0916C20F0916D208181807C80345F
:1040A00059F480916E20805855DFE0916C20F0919A
:1040B0006D2081818460818308951F93CF93DF9366
:1040C0001F921F92CDB7DEB7182F4A83698342DF54
:1040D000E0916C20F0916D201182E0916C20F091C4
:1040E0006D20812F881F8827881F880F8083E0918B
:1040F0006C20F0916D2069816183E0916C20F091DA
:104100006D201282138220916A2030916B202483CB
:104110003583110F110B4A811423F901E05CFF4F25
:1041200010833196108281E00F900F90DF91CF9134
:104130001F910895CF92DF92EF92FF920F931F93FA
:10414000CF93DF931F921F92CDB7DEB7E62E6C019F
:10415000F12CFE1409F444C0F60190819923D9F1A1
:104160000181128183812481223010F058E101C045
:1041700058E028E030E040E02017310720F44F5F9E
:10418000220F331FF9CF452B292F2F7030E0253018
:10419000310514F080E025C0242F2F7E0134110555
:1041A000C8F7882321F0813021F4206C0EC02064F0
:1041B00003C02068811109C0402F622F80E8890F59
:1041C0002A8399837ADF99812A81402F622F892F50
:1041D00074DF8823F9F2F394F5E0CF0ED11CB9CF48
:1041E00081E00F900F90DF91CF911F910F91FF9081
:1041F000EF90DF90CF90089580E090E0E091C604CA
:10420000F091C7049C0174E0220F331F7A95E1F707
:10421000E20FF31F1186E091C604F091C704E20F8C
:10422000F31F118201968530910541F70895809121
:10423000622087FD04C0BCDE882351F00EC0C4DEBE
:10424000811105C0809161208111F9CF089553CE6D
:10425000809161208111EFCF089534CE1F93CF93C9
:10426000DF93E091C604F091C704E05BFF4FC0818B
:10427000D18114E680916E208078803851F498DEE8
:10428000811105C080916120811105C021C080E0AD
:1042900024C09ADEF5CF8530E9F0E0916C20F091F2
:1042A0006D20818182FD18C0E091C604F091C704A1
:1042B000E05BFF4F808191818C179D07D9F22FEF32
:1042C000210F112319F0EC01122FD4CF84E005C087
:1042D00082E003C083E001C081E0DF91CF911F91B4
:1042E0000895CF93DF93E0E4F0E01482848183604B
:1042F00084834DD053D0C0ECD4E088818F778883FD
:104300008881806888831092612010925D201092CD
:104310005F2010925E2088818064888348E068E492
:1043200080E8CBDE48E068E480E0C7DE8885806412
:104330008887898181608983DF91CF9108952FB724
:10434000F89482E0E0ECF1E08287EAE1F0E0E491C9
:10435000A0ECB4E0DA96EC93DA97EBE1F0E0E491CC
:10436000DB96EC93DB97E0ECF1E0128684E093E2DD
:104370008E7F16968D939C93179784E18C9383E0A0
:1043800018968C932FBF81E080936020AACFE0EC39
:10439000F4E080858370808711860895E0ECF4E076
:1043A0008FEF8287848708951F920F920FB60F9226
:1043B00011240BB60F922F933F934F935F936F93FC
:1043C0007F938F939F93AF93BF93EF93FF938091CE
:1043D000CA0487FF09C08091C80487FF05C080E830
:1043E0008093CA040E94FA148091CA0486FF07C011
:1043F00080E48093CA04109261200E94CE148091C0
:10440000CA0485FF14C080E28093CA0480915D20B5
:10441000882311F084E007C08091C304882311F041
:1044200083E001C081E0809361200E94C7148091E5
:10443000CA0484FF14C080E18093CA0482E08093A0
:10444000612010925D201092C304D6DE48E068E43B
:1044500080E833DE48E068E480E02FDE81DBFF9116
:10446000EF91BF91AF919F918F917F916F915F91EC
:104470004F913F912F910F900BBE0F900FBE0F9059
:104480001F901895CF93DF93EC01FC0170968BE0A1
:10449000DF011D928A95E9F782E08C83898783E0AA
:1044A0008E8761E0CE01019645DE882361F061E0F0
:1044B000CE0106963FDE882331F061E0CE010B96F7
:1044C000DF91CF9137CE80E0DF91CF910895CF93E8
:1044D000DF93EB01209161202430D1F4FC01448969
:1044E000558966897789452B462B472B89F0818131
:1044F00031DDFE0101900020E9F7BF016150710933
:104500006C1B7D0B40E050E0CE01DF91CF913ACBA8
:1045100082E0DF91CF910895CF93FC01C62F809167
:1045200061208430F9F44489558966897789452B5F
:10453000462B472BB9F081810DDD20916A20309107
:104540006B20F901EF5BFF4F9081319780819817C5
:1045500020F48C2FEFDC80E006C0B4DC7FDE882303
:10456000C1F301C082E0CF910895CF93DF932091F2
:104570006120243091F5FC01448955896689778949
:10458000452B462B472B49F18181E4DC20916E209D
:1045900080916A2090916B20FC0127FF05C0EF5BA2
:1045A000FF4F208130E008C0E05CFF4F2081319652
:1045B000408130E0241B3109232B69F0FC01EF5BC3
:1045C000FF4FD0813197C0817DDCDC1720F046DEC3
:1045D000811104C077DC80E001C082E0DF91CF91DF
:1045E0000895CF93DF93EC0180916120843089F4AA
:1045F0004C895D896E897F89452B462B472B49F075
:104600008981A8DCD5DC882321F0CE01DF91CF9110
:10461000ACCFDF91CF910895CF93DF9320916120AC
:10462000243019F0C0E0D0E03AC0FC01448955893B
:1046300066897789452B462B472BA1F386818ADC37
:10464000C3DC882379F320916E2080916A209091B9
:104650006B20FC0127FF05C0EF5BFF4FC081D0E05E
:1046600008C0E05CFF4FC08131962081D0E0C21BC2
:10467000D109209711F43FDC12C020916E20FC017B
:1046800027FF05C0EF5BFF4FC081D0E008C0E05CB2
:10469000FF4FC08131968081D0E0C81BD109CE0187
:1046A000DF91CF910895CF93DF9320916120243043
:1046B00019F08FEF9FEF46C0FC0144895589668948
:1046C0007789452B462B472BA1F3868143DC7CDC85
:1046D000882379F380916E2020916A2030916B209D
:1046E000F90187FF05C0EF5BFF4F808190E008C0B4
:1046F000E05CFF4F80813196208190E0821B910920
:10470000892B21F007DCC82FD0E002C0CFEFDFEF0C
:1047100080916E2020916A2030916B20F90187FFF3
:1047200005C0EF5BFF4F808190E008C0E05CFF4F69
:1047300080813196208190E0821B9109892B09F4B8
:10474000DADBCE01DF91CF9108950895FF920F93A8
:104750001F93CF93DF93EC0150DC882309F48EC0C4
:10476000888190E0209166203091672028173907D2
:1047700009F084C080916320813259F018F48032AE
:1047800049F17CC0823209F457C0833209F467C012
:1047900075C080916220813A09F070C047DC08DC66
:1047A0008823E9F38C89FD880E891F89C3DB8F2D4F
:1047B000C1DB802FBFDB812FBDDB888DBBDB898D0B
:1047C000B9DB8A8DB7DB7EDBDF91CF911F910F9133
:1047D000FF902DCD80916220813209F04FC026DC00
:1047E000F3DB811105C0809161208111F9CF46C0B2
:1047F00091DB082F8FDB182F8DDBF82E8BDB4F2DF5
:1048000050E060E070E0BA0155274427782B402B38
:10481000512B4C8B5D8B6E8B7F8B7CDB888F7ADB97
:10482000898F78DB8A8F67DB02DDCE01DF91CF9144
:104830001F910F91FF9089CF809162208132F1F416
:10484000F5DBF5DC8091642090916520888B998B55
:10485000CE01DF91CF911F910F91FF9076CF809184
:104860006220813259F4E2DBE2DC60916420CE0107
:10487000DF91CF911F910F91FF9067CFDF91CF9183
:104880001F910F91FF9008956F927F928F929F9248
:10489000AF92BF92CF92DF92EF92FF920F931F934E
:1048A000CF93DF9300D0CDB7DEB77C01ADB6BEB6F7
:1048B000A4DB882309F4D2C0F701808190E0209125
:1048C0006620309167202817390709F0C7C080910A
:1048D0006320833009F481C030F4813071F082307C
:1048E00009F4AAC0BBC08A3009F492C08B3009F425
:1048F00080C0893009F0B2C040C080916220813A06
:1049000009F0ACC08DB69EB619821A8280916420DF
:10491000109165208B83F701408550E08DB79EB7DD
:10492000841B950B8DBF9EBFEDB7FEB731966F010F
:1049300060E070E0CF01CAD14FEF410F8E010F5FF1
:104940001F4F9601BE016D5F7F4FC7010E94061584
:10495000F70186819781009721F0408550E0B601EC
:10496000ACD180E0F7DA62DB8B818111E3DA698117
:104970007A81C60152D9BFDA2DC08091622081327E
:1049800009F06CC08DB69EB6009168201091692028
:1049900070906420609065208DB79EB7801B910B4E
:1049A0008DBF9EBFEDB7FEB731966F013FDBB801FB
:1049B000C601ADD987DA21E0711001C020E030E0F6
:1049C000021B130B2C0D3D1D4FEF460D672DC7012C
:1049D0000E941E158DBE9EBE41C080916220813A0C
:1049E00009F03CC023DBE4DA8823E9F3F701818591
:1049F00032C080916220813289F518DB18DC9091F9
:104A0000642081E0911101C080E0F701818726C018
:104A100080916220813211F509DB09DC80916420EC
:104A200090916520882736E0969587953A95E1F72D
:104A3000F7018487958712C080916220813A71F4D2
:104A4000F5DAB6DA8823E9F3F7018485958596953A
:104A50008795969587956EDA35DAE9DBADBEBEBEF1
:104A60002396CDBFDEBFDF91CF911F910F91FF90B5
:104A7000EF90DF90CF90BF90AF909F908F907F90FE
:104A80006F900895FC01399627E0DF011D922A9569
:104A9000E9F721E0FC01218724EF31E02487358705
:104AA00023E0248361E0019645CB5F926F927F9271
:104AB0008F929F92AF92BF92CF92DF92EF92FF922E
:104AC0000F931F93CF93DF9300D0CDB7DEB77C0158
:104AD000ADB6BEB680916120843009F099C0E091F6
:104AE000C604F091C704E05BFF4FD7011A962D91E1
:104AF0003C911B97808191812817390709F488C060
:104B000011968C9127DA80916A2090916B20FC019C
:104B1000EF5BFF4F208131978081281708F078C024
:104B20008DB69EB6F701408550E08DB79EB7841BC9
:104B3000950B8DBF9EBFADB7BEB711966D011B82A1
:104B400019821A8260E070E0CD01C0D08E010F5F43
:104B50001F4F960140E0BE016D5F7F4FC7010E946D
:104B60000615682EF70184859585892B41F021E093
:104B700086859785892B09F020E0722E01C0712C63
:104B8000D70116960D911C9117970115110589F003
:104B900049815A81B801C60183D055245394892B89
:104BA00009F4512CF701408550E0B601C80185D0C9
:104BB00001C0512C29813A81232BE9F0611004C0F6
:104BC000511002C070FE17C0D7011C968D919C91A8
:104BD0001D971E968D939C931F9711968C91BAD911
:104BE0008B818111A7D969817A8140E050E0C601AB
:104BF0000E94C21D67D9E091C604F091C704E05B32
:104C0000FF4F80819181F701828793878DBE9EBE81
:104C1000ADBEBEBE2396CDBFDEBFDF91CF911F914B
:104C20000F91FF90EF90DF90CF90BF90AF909F904B
:104C30008F907F906F905F900895991B79E004C0EA
:104C4000991F961708F0961B881F7A95C9F78095CB
:104C5000089597FB072E16F4009406D077FD08D030
:104C60000BD007FC05D03EF4909581959F4F089599
:104C7000709561957F4F0895AA1BBB1B51E107C03A
:104C8000AA1FBB1FA617B70710F0A61BB70B881FDC
:104C9000991F5A95A9F780959095BC01CD0108956B
:104CA000FB01DC0104C08D910190801921F4415079
:104CB0005040C8F7881B990B0895FB01DC0102C026
:104CC00001900D9241505040D8F70895DC0101C089
:104CD0006D9341505040E0F70895DC016C916156AE
:104CE0006A3108F0605E6F5B6D93C1F70895F894C8
:024CF000FFCFF4
:104CF200200281080000015120080000000000008D
:104D0200000083100000010410000001820800006E
:104D12000100000000000000000000000820080060
:104D2200000000001C1B441B0E1C2F1B8B1BC71BEF
:084D3200F91B1F1B271B571C76
:00000001FF
