:100000000C9488090C94A4090C94A4090C94A409D8
:100010000C94A4090C94A4090C94A4090C94A409AC
:100020000C94A4090C94A4090C94001E0C94CE1EEC
:100030000C94A4090C94A4090C94A4090C94A4098C
:100040000C94A4090C94A4090C94A4090C94A4097C
:100050000C94A4090C94A4090C94A4090C949D1468
:100060000C94A4090C94A4090C94A4090C94A4095C
:100070000C94A4090C94A4090C94A4090C94A4094C
:100080000C94A4090C94A4090C94A4090C94A4093C
:100090000C94A4090C94A4090C94A4090C94A4092C
:1000A0000C94A4090C94A4090C94A40920202020E9
:1000B0002020204C6173744B65795573653A20009C
:1000C0000A0D0020557064617465436F756E743A53
:1000D0000020202020202020557365466C61673A5F
:1000E000000A0D00205772697465436F6E66696778
:1000F0003A000A0D202020202020205772697465C4
:100100004B65793A002049735365637265743A0010
:1001100020456E6372797074526561643A002053B1
:10012000696E676C655573653A0020436865636B5B
:100130004F6E6C793A0020526561644B65793A00E4
:10014000536C6F743A00436F6E66696775726174C1
:10015000696F6E73206F6620736C6F74733A200042
:100160006C6F636B65642100756E6C6F636B6564A7
:100170002E00436F6E666967207A6F6E6520697323
:1001800020006C6F636B65642100756E6C6F636B30
:1001900065642E004461746120616E64204F545088
:1001A000207A6F6E65732061726520000A0D00531E
:1001B000656C6563746F7220627974653A20000A19
:1001C0000D005573657220457874726120627974F0
:1001D000653A200063616E20626520757064617409
:1001E0006564206F6E6C792069662069742069737C
:1001F00020302E0063616E2062652075706461742A
:100200006564207769746820557064617465457809
:100210007472612E0053656C6563746F723A2000CE
:1002200072657365727665642076616C75652028E9
:1002300070726F626C656D2129006C65676163790E
:1002400000636F6E73756D7074696F6E00726561B7
:10025000642D6F6E6C79004F5450206D6F64653A59
:1002600020006669786564005663630053696E67B1
:100270006C6557697265202849324320646973614F
:10028000626C6564293B2054544C20696E7075740F
:10029000206C6576656C3A20000A0D0049324320D7
:1002A000656E61626C65643B204164647265737362
:1002B0003A20005265766973696F6E206E756D62C3
:1002C00065723A200053657269616C206E756D62CB
:1002D00065723A2000706172616D32200070617247
:1002E000616D31200057696C6C2072756E207769E2
:1002F00074683A206F70636F6465200052656365AF
:10030000697665642066726F6D20415453484132AE
:1003100030343A2000457865637574696E673A2019
:1003200000202D20496E7075742C207768656E2032
:100330007265717565737465642C206973206578C6
:1003400070656374656420696E20287061646465FB
:1003500064292048455820666F726D61742C2065B1
:100360002E672E2027414230312720666F7220747D
:10037000776F2062797465733A2031373120312EDE
:100380000A0D00202020206D61696E6C7920746F49
:1003900020636865636B2074686520656E746572A0
:1003A000656420706172616D65746572732E0020E2
:1003B0002D20546865202773656E74207061636B0F
:1003C00065742720696E666F20646F6573206E6F99
:1003D0007420616C77617973206D61746368207734
:1003E00068617427732061637475616C6C79206532
:1003F000786163746C792073656E742E204974275C
:10040000732070726F766964656400202D204154FA
:100410005348413230342069732073656E74207400
:100420006F20736C656570206F7220746F20696433
:100430006C65206D6F6465206166746572206576F9
:1004400065727920636F6D6D616E642C2073656CCD
:1004500065637420766961205B495D2E0020202051
:10046000203C31627974653A7061636B65745F73C7
:10047000697A653E203C6D73675F627974653E20E2
:100480003C6D73675F627974653E202E2E2E203C92
:1004900031627974653A6372635F313E203C316248
:1004A0007974653A6372635F323E00202D20466F97
:1004B000726D6174206F662041545348413230346C
:1004C00020636F6D6D616E6420726573706F6E7303
:1004D00065733A004164646974696F6E616C20638E
:1004E0006F6D6D656E74733A0044616E6765726F0F
:1004F00075732F6F6E652D74696D65206F6E6C79E5
:1005000021205B4C5D6F636B0A0D00273F27202D78
:100510003E20746869732068656C7000506C617966
:1005200067726F756E6420636F6E6669673A205BF1
:10053000495D646C652D6F722D736C65657000503C
:10054000726F63657373656420636F6D6D616E6454
:10055000733A205B735D657269616C20635B6F5DEC
:100560006E6669675F7A6F6E65002020202020200C
:1005700020202020202020205B6D5D6163205B6EA9
:100580005D6F6E6365205B725D616E646F6D20727E
:100590005B655D6164205B775D72697465205B7586
:1005A0005D646174655F6578747261005261772083
:1005B000636F6D6D616E64733A2077615B6B5D652F
:1005C000205B635D6865636B4D4143205B645D65E3
:1005D000726976655F6B6579206465765F72655BCD
:1005E000765D6973696F6E205B675D656E5F6469D8
:1005F00067205B685D4D4143002A2A2A2053484109
:1006000032303420706C617967726F756E64205B74
:10061000286329203230313420666C616262657251
:10062000676173745D202A2A2A0A0D000A0D0049A9
:10063000646C652E00536C6565702E005377697489
:100640006368696E6720776865746865722074688E
:10065000652041545348412073686F756C64206273
:10066000652070757420746F20736C656570206FE1
:100670007220746F2069646C65206D6F6465206101
:100680006674657220636F6D6D616E64732E0A0D02
:1006900043757272656E742073657474696E673A1F
:1006A00020000A0D00456E7465722053756D6D61F2
:1006B0007279202F204352432D3136206F662074EB
:1006C0006865207A6F6E65202832206279746573C0
:1006D0002C2073686F756C64206265203020696619
:1006E0002027666F726365273B2064656661756CC1
:1006F000742030293A00456E746572207A6F6E65F9
:1007000020283120627974653A2030302F436F6E93
:10071000666967206F722030312F4F54505F6F72BF
:100720005F446174612C202B3078383020666F7202
:100730002027666F7263652720284352432069672C
:100740006E6F726564293B2064656661756C742008
:1007500030293A004C6F636B2061207A6F6E652EF2
:1007600020546869732069732061206F6E6520745E
:10077000696D65207468696E6721204F6E6365201E
:10078000796F75206C6F636B2061207A6F6E652CBA
:100790002069742043414E275420424520554E4C39
:1007A0004F434B45442E2045564552210053686F18
:1007B000756C6420726563656976653A2020202037
:1007C0002020202020303420313120333320343396
:1007D00000546573742077616B696E672075702EA5
:1007E000000A0D00456E746572206E657720766193
:1007F0006C756520283120627974653B20646566DC
:1008000061756C742030293A00456E746572206DF4
:100810006F646520283120627974653A2030302D6C
:100820003E7570646174652038342C2030312D3E63
:100830007570646174652038353B20646566617548
:100840006C742030293A0055706461746520275516
:1008500073657245787472612720627974657320BC
:1008600028383420616E642038352920696E207460
:10087000686520436F6E66207A6F6E6520616674CE
:100880006572206C6F636B696E672E0064617461C2
:1008900032200064617461312000456E74657220FD
:1008A0004D414320746F2076616C696461746520EA
:1008B0006164647265737320616E64206461746145
:1008C000202830206F722033322062797465733BA8
:1008D0002064656661756C742030293A00456E7439
:1008E00065722064617461202834206F7220333275
:1008F0002062797465733B2064656661756C742051
:1009000030293A00456E74657220416464726573E3
:10091000732028322062797465733B2064656661B8
:10092000756C742030293A0020202B307838302024
:10093000746F20777269746520333220696E737426
:10094000656164206F6620342062797465732C20A1
:100950002B3078343020746F207265717569726540
:1009600020656E6372797074696F6E3B2064656692
:1009700061756C742030293A00456E746572207A76
:100980006F6E6520283120627974653A2030302FEF
:10099000436F6E666967206F722030312F4F54505D
:1009A000206F722030322F446174612C00577269BD
:1009B000746520746F206465766963652E000A0D86
:1009C00000456E74657220416464726573732028FB
:1009D000322062797465733B2064656661756C745E
:1009E0002030293A00456E746572207A6F6E65205A
:1009F000283120627974653A2030302F436F6E665B
:100A00006967206F722030312F4F5450206F722051
:100A100030322F446174612C202B307838302074B0
:100A20006F207265616420333220696E7374656172
:100A300064206F6620342062797465733B2064659E
:100A40006661756C742030293A00526561642066D5
:100A5000726F6D206465766963652E006E6F6E65DA
:100A600000456E746572206D6F64652028303020FB
:100A70006F722030313B2064656661756C74203084
:100A8000293A0047656E6572617465206120726164
:100A90006E646F6D2073657175656E63652E006E93
:100AA0006F6E6500456E74657220696E7075742096
:100AB00076616C756520283230206F7220333220C9
:100AC00062797465732028646570206F6E206D6F85
:100AD0006465293B2064656661756C7420616C6C8B
:100AE0002030293A00456E746572206D6F64652070
:100AF00028303020746F2030333B20646566617588
:100B00006C742030293A0047656E65726174652007
:100B100061206E6F6E636520666F722073756273FD
:100B2000657175656E7420757365206279206F74C8
:100B300068657220636F6D6D616E647320284E6FFF
:100B40006E636520636F6D6D616E64292E00646154
:100B50007461312000456E746572206368616C6C4D
:100B6000656E6765202833322062797465733B2097
:100B700064656661756C742030293A00456E746551
:100B80007220536C6F74204944202832206279749B
:100B900065733B2064656661756C742030293A008A
:100BA000456E746572206D6F64652028312062790E
:100BB00074653B2064656661756C742030293A0069
:100BC000436F6D70757465205348412D3235362062
:100BD00066726F6D206B6579202B206368616C6C89
:100BE000656E6765202B206F7468657220696E667C
:100BF0006F206F6E2064657669636520284D4143E0
:100C000020636F6D6D616E64292E000A0D00456EC4
:100C100074657220536C6F7420494420283220621E
:100C2000797465733B2064656661756C7420302946
:100C30003A00456E746572206D6F6465202831201E
:100C4000627974653B2064656661756C7420302937
:100C50003A00436F6D7075746520484D41432F53C2
:100C600048412D3235362064696765737420667299
:100C70006F6D206B6579202B206F74686572206919
:100C80006E666F206F6E2064657669636520284804
:100C90004D414320636F6D6D616E64292E00646168
:100CA0007461312000456E746572206F74686572DE
:100CB0002064617461202834206279746573207720
:100CC00068656E20436865636B4B65792C206F7493
:100CD000686572776973652069676E6F7265643BDA
:100CE0002064656661756C742030293A00456E7425
:100CF0006572204B6579204944202F204F545020A5
:100D0000736C6F7420494420283120627974653BEC
:100D10002064656661756C742030293A00456E74F4
:100D20006572207A6F6E6520283120627974653A89
:100D30002030302F436F6E666967206F722030312C
:100D40002F4F5450206F722030322F446174613B1A
:100D50002064656661756C742030293A00436F6DBC
:100D600070757465205348412D3235362066726F98
:100D70006D2054656D704B65792B73746F7265646B
:100D80002076616C75652C2073746F7265207265B6
:100D900073756C7420696E2054656D704B65792095
:100DA0002847656E44696720636F6D6D616E6429C5
:100DB0002E0052657175657374206465766963658C
:100DC000207265766973696F6E2E0064617461319B
:100DD0002000456E746572204D414320666F72207D
:100DE00076616C69646174696F6E202830206F725F
:100DF0002033322062797465733B206465666175C7
:100E00006C742030293A00456E746572205461720A
:100E100067657420536C6F74204944202831206228
:100E20007974653B2064656661756C742030293A7D
:100E300000456E7465722072616E646F6D2028319A
:100E400020627974653A203030206F722030343B54
:100E50002064656661756C742030293A00436F6DBB
:100E600062696E652063757272656E74206B657958
:100E70002077697468206E6F6E636520616E6420F0
:100E800073746F726520696E2061206B65792073C1
:100E90006C6F7420284465726976654B65792063B0
:100EA0006F6D6D616E64292E006461746133200082
:100EB0006461746132200064617461312000456EA8
:100EC000746572206F746865722064617461202893
:100ED00031332062797465733B2064656661756C9B
:100EE000742030293A00456E74657220636C696520
:100EF0006E7420726573706F6E73652028333220B4
:100F000062797465733B2064656661756C7420302A
:100F1000293A00456E74657220636C69656E7420B1
:100F20006368616C6C656E67652028333220627976
:100F30007465733B2064656661756C742030293A72
:100F400000456E74657220536C6F742049442028EC
:100F50003120627974653B2064656661756C74202C
:100F600030293A00456E746572206D6F64652028E3
:100F70003120627974653B2064656661756C74200C
:100F800030293A0043616C63756C61746520616E51
:100F90006420636F6D70617265204D41432028436A
:100FA0006865636B4D414320636F6D6D616E6429AD
:100FB0002E005265717565737420616E64206469DA
:100FC00073706C617920636F6E666967207A6F6EEB
:100FD0006520636F6E74656E74732E005265636571
:100FE0006976656420534E3A200053686F756C64CF
:100FF000206765743A202030312032332078782001
:10100000787820787820787820787820787820454B
:101010004500526571756573742073657269616C02
:10102000206E756D6265722E002D2D2D2053202DA2
:101030002D2D002D2D2D2049202D2D2D000A0D00A8
:10104000427574746F6E20707265737365642E00E0
:10105000556E6B6E6F776E206572726F72206D6564
:1010600073736167652E0054696D656F75742077C1
:1010700068696C652077616974696E6720666F7254
:10108000206120726573706F6E73652028676F74BE
:10109000206E6F206279746573292E00436F6D6D29
:1010A000756E69636174696F6E206661696C6564F1
:1010B00000526573796E63204F4B206166746572D0
:1010C0002077616B6575702E0054696D656F75745E
:1010D00020286E6F7420616E206572726F722077A7
:1010E00068696C652062757379292E0054696D6595
:1010F0006F7574207768696C652077616974696EB3
:101100006720666F72206120726573706F6E736501
:101110002028676F74203E30206279746573292E11
:1011200000426164204352432072656365697665BD
:10113000642E004F7574206F662072616E676520A3
:101140006572726F722E00496E76616C69642064FC
:1011500065766963652049442E00426164207061B0
:1011600072616D657465722E00556E73706563698A
:1011700066696564206572726F722E00436F756CCC
:10118000646E277420657865637574652064756581
:1011900020746F2077726F6E6720636F6E6469745E
:1011A000696F6E2F73746174652E00556E6B6E6F70
:1011B000776E206572726F722E0043524320657203
:1011C000726F722E00436F6D6D616E64206578657D
:1011D000637574696F6E206572726F722E00506154
:1011E000727365206572726F722E0053756363654A
:1011F00073732E000D0A000D0A004603730065008C
:101200007200690061006C002F006B0065007900BE
:1012100062006F006100720064002000410056000F
:101220005200200073007400690063006B0020000E
:101230006400650076002000640065006D006F00AA
:101240000000180366006C00610062006200650027
:101250007200670061007300740000000403090459
:1012600009025F00030100C032080B000202020104
:10127000000904000001020201000524001001041D
:101280002402060524060001070582030800FF0961
:10129000040100020A00000007050402100005070F
:1012A0000583021000050904020001030101000981
:1012B0002111010001223F000705810308000512EA
:1012C000011001EF020108EB036F2001000102DCB5
:1012D0000105010906A101050719E029E715002507
:1012E00001750195088102950175088101050819AC
:1012F0000129059505750191029501750391011567
:101300000025FF0507190029FF950675088100C013
:1013100011241FBECFEFDAE0DEBFCDBF11E0A0E0A9
:10132000B1E0E0E4F9E402C005900D92A834B10701
:10133000D9F721E0A8E4B1E001C01D92AB36B207B5
:10134000E1F7B1D30C949E240C9400001F93CF932B
:10135000DF93182F1F7090E024E0959587952A95CC
:10136000E1F730E3380FDAE06D2F0E944424C7E044
:101370008C9F300D1124832F0E943D1320E3210FF9
:10138000812F6D2F0E9444248C9F200D1124822FC9
:10139000DF91CF911F910C943D13D8DF8091000114
:1013A0000C943D130F931F93CF93DF938B01EC01AC
:1013B000080F191FC017D10759F08991C7DF809115
:1013C00000018823B9F3809100010E943D13F2CF00
:1013D000DF91CF911F910F910895E4DF8CE296E0A9
:1013E0000C9447138F7020E3280F90E06AE070E0C0
:1013F0000E945024822F97E0699F800D11240C9445
:101400003D138170805D0C943D1389EF95E00E943F
:1014100057138CEA95E00E9457138AE695E00E94E4
:1014200057138FE395E00E9457138CE195E00E94DB
:1014300057138BE095E00E94571389EE94E00E94C9
:10144000571384ED94E00E9457138BEA94E00E94B6
:1014500057138DE594E00E9457138BE094E00E94AF
:1014600057138FEA93E00E94571383E893E00E949A
:10147000571381E293E00C94571385E193E00C94A9
:101480004713CF93DF93EC018CEF92E00E94471358
:10149000688170E0CE01DF91CF919FCF1F93CF93F2
:1014A000DF931F92CDB7DEB7182F85EE92E06983E8
:1014B0000E944713812F71DF8DED92E00E94471348
:1014C0006981862F6ADF85ED92E00F90DF91CF91E1
:1014D0001F910C944713EF92FF920F931F93CF939A
:1014E000DF93CDB7DEB7C85CD1090FB6F894DEBF85
:1014F0000FBECDBF7C01660F771F6F5F7F4F40E04F
:10150000CE0101960E949D138C01CE0101960E948E
:101510009424FE01329620E030E020173107F0F4E9
:10152000DF0111978C9190ED980F9A3010F099ECA3
:10153000980F408180ED840F8A3010F089EC840F81
:10154000D901B695A795AE0DBF1D40E1949F800DC2
:1015500011248C932E5F3F4F3296DFCFC8019695B2
:101560008795C853DF4F0FB6F894DEBF0FBECDBFCF
:10157000DF91CF911F910F91FF90EF900895BF924F
:10158000CF92DF92EF92FF920F931F93CF93DF934F
:10159000EC0185EC92E00E94471364E070E0CE011C
:1015A00001DF65E070E0CE01089617DF83EB92E083
:1015B0000E94471364E070E0CE0104960EDF8E8532
:1015C00080FF0CC08CE992E00E94471388898695C1
:1015D000BDDE89E992E00E9447130EC08CE692E0DE
:1015E0000E944713888983FF03C088E692E002C007
:1015F00082E692E00E94571387E592E00E9447132B
:101600008A89853551F08A3A29F0811109C08AE327
:1016100092E008C08DE492E005C081E492E002C04F
:1016200080E292E00E94571385E192E00E94471306
:101630008B89811103C084EF91E002C084ED91E0B9
:101640000E94571382EC91E00E944713FE01EC5A6E
:10165000FF4F80817BDE8FEB91E00E9447138FEA82
:1016600091E00E944713FE01EB5AFF4F80816EDE2E
:101670008CEA91E00E94471384E991E00E944713AD
:10168000FE01EA5AFF4F8081853519F48AE891E01E
:1016900002C082E891E00E94571382E791E0F7D7F9
:1016A000FE01E95AFF4F8081853519F488E691E003
:1016B00002C080E691E0FBD786E491E0F8D78E0186
:1016C0000C5E1F4F7E0185E3E80EF11CB12C6E010C
:1016D000E4E4CE0ED11C80E491E0D9D78B2D82DEDC
:1016E00086E391E0D4D7F80180817CDE8AE291E044
:1016F000CED7F801808182958F7083DE8EE191E0F4
:10170000C6D7F80180818295869587707ADE80E160
:1017100091E0BDD7F801808182958695869583708A
:1017200070DE85E091E0B3D7F8018081881F8827BB
:10173000881F67DE82EF90E0AAD7E701A097888133
:1017400051DE84EE90E0A3D7888182958F704ADEC7
:1017500081EE90E09CD7F7E0FB1588F081ED90E0FA
:1017600096D7F70131978081F1DD83EC90E08FD738
:10177000F7018081EBDD80EC90E089D70AC0FFE0C3
:10178000BF1207C08CEA90E082D760E170E0C6012A
:1017900024DEB3940E5F1F4F82E0E80EF11CE0E1FF
:1017A000BE1299CFDF91CF911F910F91FF90EF90D3
:1017B000DF90CF90BF900895EF92FF920F931F9309
:1017C000CF93DF93EC01162F2FEF81EE94E02150A1
:1017D00080409040E1F700C000002ED7892B11F423
:1017E00081E01BC02DD7E82E8117D0F78883FF2416
:1017F000F394EF1488F020D7892B91F38E010F0D0D
:10180000111D1ED7F80180838FED9EE20197F1F73D
:1018100000C00000F394EDCF80E0DF91CF911F91E5
:101820000F91FF90EF9008952F923F924F925F9209
:101830006F927F928F929F92AF92BF92CF92DF92E0
:10184000EF92FF920F931F93CF93DF93CDB7DEB745
:10185000C055D1090FB6F894DEBF0FBECDBF7C01D5
:10186000162F2A013901DC01DC9011962C90B4E08E
:10187000BD1510F082E0ACC0FC0192803380A480E2
:10188000B580F5E0DF1689F0DC0116960C9116970D
:10189000013280F71796CE018196FC012E2F281B6E
:1018A000201720F42D912193F9CF00E04D2D50E029
:1018B000802F90E09C012A5F3F4F241735072CF5BD
:1018C000D701A80FB91F1796CC901797E0E2EC1537
:1018D00088F29E012F5F3F4F61963FAF2EAF619719
:1018E00020E030E02C1590F4BD01620F731FFB0166
:1018F00060856196EEADFFAD619761936196FFAF34
:10190000EEAF61972F5F3F4FEDCFC12C6C2D70E094
:101910009C01295F3F4F260F371F24173507F4F42A
:10192000F701E80FF91FE60FF71F8084FDE0F815B7
:1019300008F4A0CFFE01EF5BFF4F20E030E0860F00
:10194000971F8E0D9F1D281550F4DC01A20FB31FA9
:1019500019964C9141932F5F3F4FF5CF812CB701E2
:10196000C3010E94E7142B2D30E0322F22272A0DCD
:10197000311D5F924F921F93FF92EF92DF92CE0143
:101980008F5B9F4F9F938F93805491095C01DE0181
:1019900091967D01432D692DC3010E945A17182F7E
:1019A0000FB6F894DEBF0FBECDBFD301ED91FC9111
:1019B000222021F00088F189E02D03C00684F785FC
:1019C000E02DC3010995112311F083E001C080E0EF
:1019D000C05BDF4F0FB6F894DEBF0FBECDBFDF9107
:1019E000CF911F910F91FF90EF90DF90CF90BF901C
:1019F000AF909F908F907F906F905F904F903F90AF
:101A00002F900895823EA1F1A0F4843D41F148F465
:101A1000823D09F445C000F581113FC08BEE91E194
:101A200041C0803EF9F008F5853DB9F58BEA91E1BA
:101A300039C0863E31F130F4843EE9F0F8F487E4B1
:101A400091E130C0883E19F1F8F0803F19F1813FF3
:101A500021F587E690E126C085EC91E123C08AEB71
:101A600091E120C08CE791E11DC089E691E11AC0A7
:101A70008AE591E117C083E391E114C081E291E12D
:101A800011C08CEE90E10EC089EC90E10BC081EBAF
:101A900090E108C08CE990E105C080E590E102C0CA
:101AA0008EED91E104C6CF93DF93CDB7DEB7C65379
:101AB000D1400FB6F894DEBF0FBECDBFCE01825D20
:101AC0009E4F0E948F1BCE01825D9E4F0E94951BF0
:101AD00019D6BAD510E0C05DDE4F1882C053D14090
:101AE0004E0193943E0180EE680E711C2E0195E626
:101AF000490E511CADEBB0E0AC0FBD1F1196CF5C91
:101B0000DE4FB983A883C153D140F201B096CC5CBB
:101B1000DE4FF983E883C453D1401E01F0EE2F1A43
:101B2000FEEF3F0AF4D557D66B017C016730710593
:101B30008105910558F0C05DDE4F8881C053D140CA
:101B400081110BC080E490E1B2D507C0C05DDE4FCB
:101B50009881C053D140992389F0A1E0C05DDE4F48
:101B6000A883C053D140B7E0CB16D104E104F104FF
:101B700028F4C05DDE4F1882C053D1409CD5CD5CA7
:101B8000DE4F8883C353D140882379F011110DC0F3
:101B9000EFEFF0E722E0E150F0402040E1F700C035
:101BA00000008DE390E173D530DC46D5892B09F434
:101BB0001FC546D58C018D3F41F564E6CE010196E7
:101BC000FBDD182F81110BC09E01225D3E4FAE013F
:101BD00043545F4F63E2CE01019626DE182F812F1A
:101BE0004CD5111105C5C354DF4F8881CD5BD04062
:101BF000181708F0FDC4EDEBF0E0EC0FFD1FE10F4E
:101C0000F11D80813AD51F5FEECF80914801882376
:101C100019F083E390E102C089E290E148D5C80160
:101C200099278836910509F462C224F58C34910510
:101C300009F46CC464F48F33910509F4C4C4893485
:101C4000910509F4C3C40D9709F0D2C4BCC484360D
:101C5000910509F4B4C12CF48336910509F423C12C
:101C6000C7C48536910509F444C38736910509F444
:101C7000F2C1BEC48237910509F408C39CF48D36C5
:101C8000910509F477C22CF48B36910509F41EC432
:101C9000AFC48E36910509F4C1C28F36910509F49F
:101CA00072C0A6C48537910509F4D4C37CF5833787
:101CB000910509F09DC482E190E1F9D4BE0163541D
:101CC0007F4FCE01825D9E4F82D6BE0163547F4F0F
:101CD000CE01825D9E4F0E94F916CA5CDE4F88835A
:101CE000C653D140CADBCA5CDE4F8881C653D1409F
:101CF00089DE8AEE9FE0DBD48CED9FE0C8D469E0FA
:101D000070E0CE0183549F4F68DB2DC0863791056C
:101D100029F08737910509F42EC36AC482EB9DE050
:101D2000C6D4BE0163547F4FCE01825D9E4F4FD615
:101D3000AE0143545F4FBE016F5F7F4FCE01825DA6
:101D40009E4F0E94A316CA5CDE4F8883C653D140C3
:101D500094DBCA5CDE4F8881C653D14053DECE018E
:101D600083549F4F8EDB80914801882331F0CE0150
:101D7000825D9E4F0E944C1A3BC4CE01825D9E4FF5
:101D80000E94441A35C482EB9FE091D476DB80E256
:101D9000D2011D928A95E9F7BE0163547F4FCE01AF
:101DA000825D9E4F14D6182F811167C000E010E0AD
:101DB00020E8AE0143545F4FBE016F5F7F4FCE01FD
:101DC000825D9E4FDAD7182F811157C080E2CF5C19
:101DD000DE4FE881F981C153D140D20101900D92CB
:101DE0008A95E1F700E210E020E8AE0143545F4F2E
:101DF000BE016F5F7F4FCE01825D9E4FBED7182F11
:101E000081113BC080E2CF5CDE4FE881F981C15394
:101E1000D140CC5CDE4FA881B981C453D140019040
:101E20000D928A95E1F790E4E92EF12C870120E0EC
:101E3000AE0143545F4FBE016F5F7F4FCE01825DA5
:101E40009E4F9BD7182F811118C0F201EE0DFF1D78
:101E5000CF5CDE4FA881B981C153D1404D915D91D6
:101E60006D917C914083518362837383B4E0EB0E68
:101E7000F11CE8E5EE16F104C9F6809148018823CB
:101E800031F0CE01825D9E4F0E944C1A05C0CE01FA
:101E9000825D9E4F0E94441A812FB4DD1111A8C3A8
:101EA000C2016DDBA5C384E89FE001D484E69FE016
:101EB000FED361E070E0CE0101960DDB813011F4BC
:101EC000298101C020E081E49FE0CA5CDE4F2883C5
:101ED000C653D140ECD361E070E0CE010196FBDA4D
:101EE000CA5CDE4F2881C653D140813011F409818C
:101EF00002C000E010E083E19FE0CA5CDE4F28836F
:101F0000C653D140D4D310E2D401E12F1D92EA95FB
:101F1000E9F760E270E0C401DEDA86EE9EE0C7D346
:101F2000D3011D921A95E9F760E270E0C301D3DA9C
:101F30008EEB9EE0BCD38DE0F10111928A95E9F71A
:101F40006DE070E0C101C7DACA5CDE4F2881C6537C
:101F5000D140622F88E2A2DA802F1FDA87EB9EE061
:101F600096D360E270E0C40138DA80EB9EE08FD354
:101F700060E270E0C30131DA89EA9EE088D36DE067
:101F800070E0C1012ADA79DABE0163547F4FCE01D5
:101F9000825D9E4F1CD5510163017401CA5CDE4F06
:101FA0002881C653D140AE0143545F4FBE016F5FDD
:101FB0007F4FCE01825D9E4F0E943118EEC28DE5AB
:101FC0009EE075D381E39EE072D361E070E0CE01C4
:101FD000019681DA813011F4D98001C0D12C87E0DB
:101FE0009EE065D361E070E0CE01019674DA813045
:101FF00011F4098102C000E010E082ED9DE057D3AA
:1020000080E2D4011D928A95E9F760E270E0C40194
:1020100062DA6D2D8CE142DA802FBFD98BEC9DE026
:1020200036D360E270E0C401D8D927DABE01635428
:102030007F4FCE01825D9E4FCAD474012D2DAE011B
:1020400043545F4FBE016F5F7F4FCE01825D9E4F55
:102050000E948918A2C28DE59DE029D38DE19DE003
:1020600026D361E070E0CE01019635DA813011F4BB
:10207000D98001C0D12C8DEE9CE019D361E070E0D5
:10208000CE01019628DA813011F4098102C000E006
:1020900010E085EA9CE00BD3F401108211821282D9
:1020A000138264E070E0C40116DA6D2D85E1F6D983
:1020B000802F73D98EE99CE0EAD264E070E0C4011D
:1020C0008CD9DBD9BE0163547F4FCE01825D9E4F18
:1020D0007ED474012D2DAE0143545F4FBE016F5F5E
:1020E0007F4FCE01825D9E4F0E94BC1856C282E592
:1020F0009CE0DDD282E39CE0DAD261E070E0CE01C8
:102100000196E9D9813011F4F98001C0F12C8EE0FB
:102110009CE0CDD262E070E0CE010196DCD9823045
:1021200041F4098110E0102F00278A81080F111D4A
:1021300002C000E010E06F2D81E1B0D9812F2DD9D0
:10214000802F04D98BE09CE0A2D297D9BE016354C2
:102150007F4FCE01825D9E4F3AD42F2DAE01435466
:102160005F4FBE016F5F7F4FCE01825D9E4F0E9429
:10217000F41813C280EC9BE09AD280EA9BE097D2DD
:1021800061E070E0CE010196A6D9813011F4D980CA
:1021900001C0D12C8CE79BE08AD262E070E0CE01D6
:1021A000019699D9823041F4098110E0102F00275F
:1021B0008A81080F111D02C000E010E085E59BE058
:1021C00076D280E2D4011D928A95E9F760E270E050
:1021D000C40181D96D2D88E061D9812FDED8802F8F
:1021E000DCD88EE49BE053D260E270E0C401F5D805
:1021F00044D9BE0163547F4FCE01825D9E4FE7D329
:1022000074012D2DAE0143545F4FBE016F5F7F4FB0
:10221000CE01825D9E4F0E943A19BFC187E09BE0CC
:1022200046D285EE9AE043D261E070E0CE0101969D
:1022300052D9813011F4F98001C0F12C84EA9AE07E
:1022400036D280E2F40111928A95E9F760E270E0FB
:10225000C40141D96F2D86E121D98FE99AE027D2B7
:102260000CD9BE0163547F4FCE01825D9E4FAFD328
:1022700084012F2DAE0143545F4FBE016F5F7F4F2E
:10228000CE01825D9E4F0E94731987C183E89AE058
:102290000ED281E69AE00BD261E070E0CE010196A9
:1022A0001AD9813011F4298101C020E0622F8BE11D
:1022B000CA5CDE4F2883C653D140F0D88CE59AE043
:1022C000F6D1DBD8BE0163547F4FCE01825D9E4FB5
:1022D0007ED3CA5CDE4F2881C653D140AE01435441
:1022E0005F4FBE016F5F7F4FCE01825D9E4F0FD566
:1022F00054C18AE49AE0DBD185EE99E0D8D161E05F
:1023000070E0CE010196E7D8813011F4F98001C068
:10231000F12C81EC99E0CBD162E070E0CE01019626
:10232000DAD8823041F4098110E0102F00278A8129
:10233000080F111D02C000E010E06F2D82E0AED842
:10234000812F2BD8802F02D88EEB99E0A0D195D881
:10235000BE0163547F4FCE01825D9E4F38D32F2D37
:10236000AE0143545F4FBE016F5F7F4FCE01825D70
:102370009E4F03D512C18DEA99E099D189E799E082
:1023800096D188E299E093D161E070E0CE010196A8
:10239000A2D8813011F4B98001C0B12C84E099E059
:1023A00086D162E070E0CE01019695D8823041F48A
:1023B000098110E0102F00278A81080F111D02C02B
:1023C00000E010E08DED98E072D1E0E2FE2ED40145
:1023D000EF2D1D92EA95E9F760E270E0C4017BD829
:1023E0008AE998E064D1D3011D92FA94E9F760E29A
:1023F00070E0C30170D86B2D82E150D8812F0E940C
:10240000CD09802F0E94CD0983E998E040D160E298
:1024100070E0C4010E94D2098CE898E038D160E2F3
:1024200070E0C3010E94ED0928D8BE0163547F4FBC
:10243000CE01825D9E4FCBD2630174012B2DAE0184
:1024400043545F4FBE016F5F7F4FCE01825D9E4F51
:10245000A1D7A3C087E498E02AD189E098E027D1EA
:1024600061E070E0CE01019636D8813011F4F98038
:1024700001C0F12C84EE97E01AD161E070E0CE014A
:10248000019629D8813011F4098102C000E010E0E2
:102490006F2D80E203D8802F0E94A60981EE97E07D
:1024A000F6D00E943D0ABE0163547F4FCE01825D8B
:1024B0009E4F8DD22F2DAE0143545F4FBE016F5FF3
:1024C0007F4FCE01825D9E4F49D767C081ED97E077
:1024D000EED00E943D0ABE0163547F4FCE01825D63
:1024E0009E4F75D2182F80914801882329F0CE0184
:1024F000825D9E4FD1D704C0CE01825D9E4FC4D76E
:10250000812F80DA8DEA97E0D2D057C084E597E03A
:10251000CED086EF96E0CBD061E070E0CE010196A0
:102520000E946B0A813011F4F98001C0F12C85EA18
:1025300096E0BDD062E070E0CE0101960E946B0A89
:10254000823041F4098110E0102F00278A81080FA2
:10255000111D02C000E010E06F2D87E10E944E0ABD
:10256000812F0E94CD09802F0E94A60982EA96E061
:102570008ED00E943D0ABE0163547F4FCE01825D22
:102580009E4F25D22F2DAE0143545F4FBE016F5F8A
:102590007F4FCE01825D9E4F47D6182F8091480114
:1025A000882329F0CE01825D9E4F76D704C0CE01EC
:1025B000825D9E4F69D7812F25DACE0183549F4FCC
:1025C0000E94410A15C00E94050A12C08CE396E0E1
:1025D0005ED080914801882329F01092480185E35C
:1025E00096E005C0B1E0B09348018FE296E05FD07D
:1025F00019D0CD5CDE4F1881C353D14093CA25B1A9
:10260000982F91722E7D922B95B92BB1982F9071A6
:10261000990F2F7D922B9BB99EB180749F7B892B44
:102620008EB9089581E191E00E94152181E091E049
:102630000E9485230C945E2081E191E00C942B2173
:1026400081E191E00C9458210F931F93CF93DF9376
:1026500081E191E00E942B218C01C0E0D0E0C01705
:10266000D10734F481E191E00E9458212196F7CFFF
:10267000DF91CF911F910F910895682F81E191E033
:102680000C94C020BC0181E191E00C949F20CF9379
:10269000DF93EC01CE01FE012491222329F0219643
:1026A000FC018491EADFF6CFDF91CF910895EFDF4F
:1026B00084EF91E1ECCF809121018170089584B77E
:1026C000877F84BF88E10FB6F894809360001092F2
:1026D00060000FBE90E080E80FB6F8948093610030
:1026E000909361000FBE84B1816284B985B18E7D03
:1026F00085B9559A5D986E9A76986A98729A0E94F2
:10270000E31D0FC1DCDF80E17ADF789408956299E0
:1027100011C08091500181110FC03FD160934C01D5
:1027200070934D0180934E0190934F0181E080930F
:1027300050010895109250010895BF92CF92DF92F8
:10274000EF92FF920F931F93CF93DF936C018B0156
:10275000B42EC0E0D0E0015011096EDF892BF9F0F2
:102760006FDF9C0133272D30310511F12F373105F3
:1027700019F02830310529F421978CE291E082DFAD
:102780000EC0C017D10758F47E012FEFE21AF20AEB
:10279000CC0DDD1D8883B1108AE26FDFE70142DFD7
:1027A000B6DF8FE39CE90197F1F700C00000D5CFB9
:1027B000F601EC0FFD1F10828AE05FDF8DE05DDF28
:1027C000CE01DF91CF911F910F91FF90EF90DF909D
:1027D000CF90BF9008950F931F938091500188234D
:1027E00071F0DBD000914C0110914D0120914E0110
:1027F00030914F01601B710B820B930B03C060E0A3
:1028000070E0CB011F910F91089581E4F8CE80E133
:10281000F6CECF9381E091E00E947223C82F81E130
:1028200091E00E947A209091E20094609093E200FF
:10283000882321F0CC2311F081E201C080E5CF9103
:10284000DECE81E191E00E948E2181E091E00C9446
:102850003E2280910F0190911001009729F001977D
:102860009093100180930F0108950F931F9380910F
:102870004901882349F080914B01F90182838091BD
:102880004A0180831092490188E090E0F801918329
:10289000808380E01F910F9108950895292F332799
:1028A00023303105B9F05CF42130310569F1223073
:1028B000310579F58FE590E020E632E12EC0213236
:1028C0003105E9F02232310521F58FE390E021ED69
:1028D00032E123C099278130910541F08230910582
:1028E00041F0892BB1F4ECE5F2E105C0E2E4F2E15C
:1028F00002C0EAEFF1E1849190E09F010EC089E00F
:1029000090E02FEA32E109C082E190E02FEB32E162
:1029100004C080E090E020E030E0FA0131832083C1
:10292000089585B5836085BD16BC10925D01EEE605
:10293000F0E080818160808308951F920F920FB62E
:102940000F9211248F939F93AF93BF9380915D015A
:102950008F5F80935D0180915D018A30A8F0809146
:10296000590190915A01A0915B01B0915C010196CF
:10297000A11DB11D8093590190935A01A0935B0151
:10298000B0935C0110925D01BF91AF919F918F91C7
:102990000F900FBE0F901F90189560915901709184
:1029A0005A0180915B0190915C0108956115710558
:1029B0008105910559F0EFE9FFE03197F1F700C08B
:1029C00000006150710981099109F0CF08950F93BA
:1029D0001F93CF93DF938C01EB01DC01ED91FC9110
:1029E0000484F585E02D0995811128C0D801ED9169
:1029F000FC910084F185E02DAE0164E0C8010995E9
:102A000081111CC08881843059F48981813151F44D
:102A10008A81833349F48B81833431F480E00EC0A2
:102A200084EE03C080EF01C085EEBFEF2AE633E0FD
:102A3000B15020403040E1F700C00000DF91CF915D
:102A40001F910F9108951F93CF93DF93C42FFA0125
:102A500080E090E04E2F4C1B4617D8F4B19148E02F
:102A600050E071E0D92FDD1FDD27DD1F880F991F92
:102A7000A1E0172F1B2309F4A0E0AD1719F0A5E082
:102A80008A279058770F415051094115510551F748
:102A9000E1CFF90180839183DF91CF911F91089558
:102AA000FF920F931F93CF93DF9300D0CDB7DEB784
:102AB0008B01FB01F080FA94FA949E012F5F3F4F47
:102AC000AB016F2DC0DFF801EF0DF11D9981808101
:102AD000981306C09A818181981302C080E001C0DA
:102AE00085EE0F900F90DF91CF911F910F91FF9086
:102AF00008952F923F924F925F926F927F928F92A2
:102B00009F92AF92BF92CF92DF92EF92FF920F937C
:102B10001F93CF93DF9300D000D000D0CDB7DEB7A6
:102B20006C014B01142F5901202E0E2DDB01EC906E
:102B30006EEF6E0DDC01ED91FC910190F081E02DC6
:102B40006D83099528EE33E0029F3001039F700CDE
:102B50001124680E791E6D819401260F311DA40188
:102B6000C60171DFB3E0FB2E00EE312C412C512C5D
:102B7000AC82FA9409F45CC0011140C03DC07A8275
:102B80006982D601ED91FC910084F185E02DA501CB
:102B9000612FC6010995082FD601ED91FC91019096
:102BA000F081E02DC601099549815A81481B590BD6
:102BB0005A83498349815A81D601ED91FC91019054
:102BC000F081E02DC6014D835E8309954D815E81C4
:102BD0008417950708F071C0073E99F2043E09F486
:102BE0003DC0B501C6015CDF082F811152C0F5015F
:102BF0008081853008F443C080E070C0D601ED913B
:102C0000FC910284F385E02DA4016E2DC601099587
:102C1000082F882379F0D601ED91FC910288F38981
:102C2000E02DA501612FC6010995873E09F0A1CFCE
:102C3000802F54C0C201B101B9DEB3E0BB83BB81B8
:102C4000B150BB83BB2309F494CFF5018E2F9C8137
:102C5000891B811708F093CF1192F8CFD601ED911F
:102C6000FC910288F389E02DA501612FC601099529
:102C7000882329F3883E09F47CCF84EE2FC081811C
:102C80008330B9F08F30B9F08F3F09F0B5CF04ED44
:102C900070CFD601ED91FC910288F389E02DA5015A
:102CA000612FC6010995882351F2883E09F461CF4E
:102CB000BFCF82ED13C083ED11C0073E09F08ECF68
:102CC000D601ED91FC910288F389E02DA501612FD9
:102CD000C6010995873E09F04CCF87EE26960FB6C0
:102CE000F894DEBF0FBECDBFDF91CF911F910F9142
:102CF000FF90EF90DF90CF90BF90AF909F908F901C
:102D00007F906F905F904F903F902F900895EF923B
:102D10000F93FB01309799F04115510581F0223056
:102D200070F427E020832BE1218312821482138226
:102D300009E2E02E0AE09A0143E2DBDE01C082EE06
:102D40000F91EF900895EF920F93FB019A01309746
:102D500081F04115510569F047E0408340E341832C
:102D600014821382128242E0E42E00E047E0C1DECA
:102D700001C082EE0F91EF900895EF920F931F9391
:102D8000FB01309789F14115510571F1322F3C77E4
:102D900059F51695079516950795322F337021F43E
:102DA0000032110508F50BC0313021F40031110556
:102DB000D8F405C0323019F400381105A8F437E012
:102DC000308332E0318322830F770383148227FF1D
:102DD00002C063E201C067E074E0E72E00E09A0100
:102DE000462FBF0186DE01C082EE1F910F91EF904A
:102DF0000895AF92BF92CF92DF92EF92FF920F931E
:102E00001F93CF93DF93CDB7DEB72E970FB6F8940D
:102E1000DEBF0FBECDBF6C017B0100E010E020E003
:102E2000AE014F5F5F4FBE01685F7F4FA6DF81112C
:102E300030C0D7015E0186E0A80EB11CFE013296BB
:102E400081918D93EA15FB05D9F708E010E020E0A9
:102E5000AE014F5F5F4FBE01685F7F4FC6018DDFE0
:102E6000D7011496FE01329691919D93EA15FB05C8
:102E7000D9F781110EC00CE010E020E0AE014F5FE9
:102E80005F4FBE01685F7F4FC60177DF9A81F70110
:102E900090872E960FB6F894DEBF0FBECDBFDF91A0
:102EA000CF911F910F91FF90EF90DF90CF90BF9047
:102EB000AF9008952F923F924F925F926F927F92C0
:102EC0008F929F92AF92BF92CF92DF92EF92FF923A
:102ED0000F931F93CF93DF9300D0CDB7DEB71C01C4
:102EE000702FC7014A8C5B8C1C8D663109F440C081
:102EF000B0F46830C1F130F46130F1F1623009F4BE
:102F000041C049C0623109F441C0653119F16131F4
:102F100009F041C013E2FCE2EF2E0AE14DC06C3132
:102F2000E9F140F46731D1F06B31A9F513E2B9E270
:102F3000EB2E26C0683241F0603351F0603259F513
:102F400014E0A3E0EA2E25C014E0BBE1EB2E0EC096
:102F500017E013C014E0A1E2EA2E12C014E0E4E18D
:102F6000EE2E04E029C013E258E1E52E0BE024C068
:102F70004330C9F414E018C014E002E0E02E1BC096
:102F80000AE01AC047FF14C013E213C014E0F7E2CE
:102F9000EF2E03E011C0E6E4EE2E0DC014E052E384
:102FA000E52E0DE009C013E208E2E02E05E104C0C1
:102FB00017E0B4E0EB2E00E0FC2CF80CF70E57E025
:102FC0005F0DF20150836183428323833201F5E078
:102FD0006F0E711CF2013483772369F0272F30E0E4
:102FE000A901BC01C30129833A830E948424298159
:102FF0003A81620E731ECC2041F0D12CA601B5019E
:10300000C3010E9484246C0C7D1C882049F0912C03
:10301000A4016F89788DC3010E948424680C791CF7
:1030200065E06F0D9301A201C1010DDD2D8D3E8D77
:10303000412FB201C1015DDD0F900F90DF91CF9163
:103040001F910F91FF90EF90DF90CF90BF90AF90C6
:103050009F908F907F906F905F904F903F902F90B8
:103060000895AF92BF92CF92DF92EF92FF920F93AB
:10307000CF93DF93EB01209709F440C04115510530
:10308000E9F1C114D104D1F1A114B104B9F1322F85
:103090003762373299F5003188F534E5388338E204
:1030A000398327722A830B831C82DB01159620E269
:1030B000E114F10429F4FD0111922A95E9F705C004
:1030C000F70101900D922A95E1F7DE01959620E235
:1030D000F60101900D922A95E1F7DE01AB5BBF4F3F
:1030E0002DE0F50101900D922A95E1F70BE1E02E1C
:1030F0000BE09A0144E0BE01FCDC01C082EEDF91EE
:10310000CF910F91FF90EF90DF90CF90BF90AF9055
:103110000895EF92FF920F93CF93DF93EB012097E7
:1031200021F14115510509F1322F3B7FF1F40031B6
:10313000E0F43CE139832A830B831C82E114F1041F
:1031400051F020E2F701DB01159601900D922A95CE
:10315000E1F727E201C027E0288322E3E22E0DE019
:103160009A0144E0BE01C5DC01C082EEDF91CF913F
:103170000F91FF90EF900895EF92FF920F931F939E
:10318000FB01309759F14115510541F1233030F5DC
:10319000213019F4023010F504C0223011F400314E
:1031A000E8F435E13183228303831482E114F104CE
:1031B00059F0D7010D911D912D913C9105831683F6
:1031C000278330872BE001C027E0208331E2E32E04
:1031D0000AE09A0144E0BF018CDC01C082EE1F913D
:1031E0000F91FF90EF900895EF920F931F93FB01C3
:1031F0003097A9F04115510591F0322F3B7879F4C1
:1032000037E0308331E131832283038314836CE21E
:10321000E62E0AE19A0143E2BF016BDC01C082EEB7
:103220001F910F91EF900895EF920F931F93FB0161
:103230003097D9F041155105C1F0322F3E77A9F4EE
:1032400027FF03C00115110581F437E0308337E112
:103250003183217822830383148374E1E72E04E011
:103260009A0144E0BF0145DC01C082EE1F910F913D
:10327000EF900895EF92FF920F931F93CF93DF93F8
:10328000EB01209741F14115510529F1322F387892
:1032900011F5322F317020FD03C0E114F104D9F093
:1032A00067E0688368E069832A830B831C8331119C
:1032B0000AC020E2F701DE01159601900D922A95D1
:1032C000E1F727E22883E8E1EE2E0BE09A0143E2E2
:1032D000BE010FDC01C082EEDF91CF911F910F91F3
:1032E000FF90EF900895EF920F931F93CF93DF938A
:1032F000EB01F801209759F14115510541F1309743
:1033000031F1243020F5223011F136E139832A835E
:103310001C821B82DB011596233049F024E10190C9
:103320000D922A95E1F72BE1288363E208C020E2A1
:1033300001900D922A95E1F727E2288364E0F8E2F4
:10334000EF2E05E19A01462FBE01D3DB01C082EECC
:10335000DF91CF911F910F91EF900895EF920F930E
:10336000FB01309799F04115510581F0223070F43E
:1033700037E0308330E23183228303831482B3E069
:10338000EB2E03E09A0144E0B4DB01C082EE0F9122
:10339000EF9008956F927F928F929F92AF92BF921B
:1033A000CF92DF92EF92FF920F931F93CF93DF9311
:1033B0004C01EB015A01209709F453C04115510506
:1033C00009F44FC0E114F10409F44BC0822F8C734F
:1033D00009F047C01695079516950795822F8370BB
:1033E00021F400321105E8F50BC0813021F40031E1
:1033F0001105B8F505C0823019F40038110588F5BB
:1034000082E189832A830F770B833E0185E0680E72
:10341000711C1C8227FF02C000E201C004E010E022
:10342000A801B701C3010E948424B301600F711F7A
:10343000C114D10449F080E2F601DB0101900D9244
:103440008A95E1F7605E7F4F6C1B7D0B6E5F688332
:1034500017E2E12E03E0950144E0BE01C40149DB1F
:1034600001C082EEDF91CF911F910F91FF90EF90FD
:10347000DF90CF90BF90AF909F908F907F906F9094
:1034800008958CED91E00895DC01ED91FC910680AA
:10349000F781E02D6CEC0994DC01ED91FC91068044
:1034A000F781E02D6BEB0994CF93DF931F92CDB79B
:1034B000DEB76983DC01ED91FC910480F581E02D9C
:1034C000AE014F5F5F4F61E009950F90DF91CF91A3
:1034D0000895CF93F894219870E0761779F128E059
:1034E00030E0C1E0FA01E70FF11D8FEF90E00197A6
:1034F000009711F11999FBCF199904C00197009712
:10350000D9F71AC08AE190E0199B0CC00197009787
:10351000D9F780818C2B808307C0DC011197892B20
:1035200019F0CD01199BF9CFCC0F2150310921158C
:103530003105D9F67F5FD1CF81EF01C080E078946B
:10354000813F11F4711189EFCF910895FF920F938C
:103550001F93CF93DF938C01F62EEA01942FEC2F6B
:10356000FD2F8E2F891B8F1510F41192FACFD801E1
:10357000ED91FC910680F781E02D68E8C80109957E
:10358000D801ED91FC910280F381E02DAE016F2D09
:10359000C8010995882311F0893F49F48881843056
:1035A00010F484EE09C0F816E0F380E005C0813F16
:1035B00011F487EE01C086EEDF91CF911F910F913C
:1035C000FF900895EF92FF921F93CF93DF9300D067
:1035D000CDB7DEB77C01162FDC01ED91FC910680A2
:1035E000F781E02D67E749835A83099549815A811C
:1035F000811110C0D701ED91FC910480F581E02D7F
:10360000612FC7010F900F90DF91CF911F91FF9015
:10361000EF90099480EF0F900F90DF91CF911F9161
:10362000FF90EF900895219A299887EF90E00197F5
:10363000F1F700C00000299A8FE097E20197F1F7B7
:1036400000C0000080E00895F894219A83E791E09B
:103650000197F1F700C0000020E0261789F188E00B
:1036600090E031E0FA01E20FF11D70817323299897
:1036700051F075E17A95F1F70000299A75E97A958C
:10368000F1F7000013C075E17A95F1F70000299A6F
:1036900075E17A95F1F70000299875E17A95F1F7CF
:1036A0000000299A7AE67A95F1F700C07AE07A95D7
:1036B000F1F700C0330F01970097B9F62F5FCDCF18
:1036C000789480E008950F931F93CF93DF93EC01DC
:1036D0008A012FE786E294E0215080409040E1F794
:1036E00000C00000E881F9810084F185E02DCE0161
:1036F0000995882371F0E881F9810684F785E02D2A
:10370000CE010995B801CE0162D9811103C088EEBE
:1037100001C080E0DF91CF911F910F91089524E3C4
:1037200031E0FC013183208308950895CF92DF9228
:10373000EF92FF920F931F93CF93DF937C018B0146
:10374000EA01D1D1811130C0209731F0888199816F
:10375000081B190BE80EF91EC12CD12C01151105FF
:1037600011F18091E80085FD13C08091E8008E770B
:103770008093E800209741F0888199818C0D9D1DF0
:103780009983888385E010C0AED1882339F30CC0BB
:10379000F70181917F018093F10001501109FFEF42
:1037A000CF1ADF0ADBCF80E0DF91CF911F910F911D
:1037B000FF90EF90DF90CF900895209169013091B4
:1037C0006A012617370748F06115710539F4209111
:1037D000E8002E772093E80001C0B901FC0120E049
:1037E00061157105B9F180916201882309F440C027
:1037F000853009F43FC08091E80083FD3DC0809191
:10380000E80082FF06C08091E80082FF26C080E0C9
:1038100008958091E80080FFE3CF2091F30080912C
:10382000F20090E0922B6115710551F088309105FE
:1038300038F421912093F100615071090196F3CF82
:1038400021E0089709F020E08091E8008E778093CE
:10385000E800C6CF2111C7CFD6CF8091620188235F
:1038600039F0853039F08091E80083FFCCCF04C077
:1038700082E0089583E0089581E00895611571055F
:1038800029F42091E8002B772093E8006115710559
:1038900041F120916201222369F1253069F12091E3
:1038A000E80023FD23C02091E80022FFF2CFFC01B5
:1038B000CF014091F3002091F20030E0342B232B14
:1038C00001F38091F1008193CF016150710961157D
:1038D000710571F7D6CF80916201882359F0853048
:1038E00059F08091E80080FFF6CF02C081E0089592
:1038F00080E0089582E0089583E0089520916901B1
:1039000030916A012617370748F06115710539F4BF
:103910002091E8002E772093E80001C0B901FC0156
:1039200020E061157105C1F180916201882309F4DD
:1039300041C0853009F440C08091E80083FD3EC05D
:103940008091E80082FF06C08091E80082FF27C0D6
:1039500080E008958091E80080FFE3CF2091F3009C
:103960008091F20090E0922B6115710559F088303A
:10397000910540F424912093F10031966150710932
:103980000196F2CF21E0089709F020E08091E8004D
:103990008E778093E800C5CF2111C6CFD5CF809117
:1039A0006201882339F0853039F08091E80083FF87
:1039B000CBCF04C082E0089583E0089581E00895AC
:1039C000982F973058F59093E900981739F0709137
:1039D000EC002091ED005091F00003C0242F762FD1
:1039E00050E021FF19C03091EB003E7F3093EB0097
:1039F0003091ED003D7F3093ED003091EB00316070
:103A00003093EB007093EC002093ED005093F000A6
:103A10002091EE0027FF07C09F5FD3CF8F70809368
:103A2000E90081E0089580E008950F931F93CF93FC
:103A3000DF93062FEC0110E0101771F198819923A4
:103A400041F12C81E981FA817B81892F8F70873048
:103A500010F080E022C0223010F056E001C052E0A9
:103A600028E030E040E02E173F0720F44F5F220FA0
:103A7000331FF9CF4295407F452B692F661F66277C
:103A8000661F90E4799F90011124622B99DF8823AF
:103A900001F31F5F2596D0CF81E0DF91CF911F9179
:103AA0000F9108958091630187FD05C08091E80022
:103AB00080FF0EC012C08091E80082FD05C0809199
:103AC00062018111F8CF08958091E8008B7708C0DA
:103AD000809162018111EACF08958091E8008E778C
:103AE0008093E80008958091E4009091E50045E618
:103AF0002091EC0020FF21C02091E80020FD21C092
:103B000020916201222389F0253089F02091EB0079
:103B100025FD0FC02091E4003091E50028173907FA
:103B200039F3415041F0C901E3CF82E0089583E0C9
:103B3000089581E0089584E008952091E80022FF2F
:103B4000DFCF80E008950F931F93CF93DF934BD087
:103B500052D0C8EDD0E088818F77888388818068D3
:103B6000888388818F7D888319BC109262011092AE
:103B70005E011092600110925F0100EE10E0F8010A
:103B800080818B7F808388818160888342E060E0D0
:103B900080E016DFE1EEF0E080818E7F8083E2EE50
:103BA000F0E0808181608083808188608083F8017B
:103BB00080818E7F8083888180618883DF91CF912F
:103BC0001F910F910895E8EDF0E080818F7E808352
:103BD000E7EDF0E080818160808384E082BF81E056
:103BE00080936101B0CFE8EDF0E080818E7F80832B
:103BF0001092E20008951092DA001092E100089508
:103C00001F920F920FB60F9211242F933F934F9351
:103C10005F936F937F938F939F93AF93BF93EF9334
:103C2000FF938091E10082FF0BC08091E20082FF50
:103C300007C08091E1008B7F8093E1000E942914EE
:103C40008091DA0080FF1FC08091D80080FF1BC0E8
:103C50008091DA008E7F8093DA008091D90080FF16
:103C60000DC080E189BD82E189BD09B400FEFDCFB0
:103C700081E0809362010E94051405C019BC109276
:103C800062010E9407148091E10080FF18C08091BA
:103C9000E20080FF14C08091E2008E7F8093E200FA
:103CA0008091E20080618093E2008091D800806280
:103CB0008093D80019BC85E080936201FED1809189
:103CC000E10084FF2FC08091E20084FF2BC080E1DF
:103CD00089BD82E189BD09B400FEFDCF8091D80085
:103CE0008F7D8093D8008091E1008F7E8093E100EA
:103CF0008091E2008F7E8093E2008091E2008160FB
:103D00008093E20080915E01882311F084E007C077
:103D10008091E30087FF02C083E001C081E08093CF
:103D20006201CBD18091E10083FF27C08091E20046
:103D300083FF23C08091E100877F8093E10082E0D0
:103D40008093620110925E018091E1008E7F8093EA
:103D5000E1008091E2008E7F8093E2008091E2009A
:103D600080618093E20042E060E080E029DE8091A3
:103D7000F00088608093F000A0D1FF91EF91BF9197
:103D8000AF919F918F917F916F915F914F913F91F3
:103D90002F910F900FBE0F901F9018951F920F92AA
:103DA0000FB60F9211242F933F934F935F936F930E
:103DB0007F938F939F93AF93BF93CF93EF93FF9393
:103DC000C091E900CF708091EC001092E9008091E1
:103DD000F000877F8093F00078941BD01092E90068
:103DE0008091F00088608093F000C093E900FF911B
:103DF000EF91CF91BF91AF919F918F917F916F91F3
:103E00005F914F913F912F910F900FBE0F901F9098
:103E100018951F93CF93DF93CDB7DEB7AA970FB650
:103E2000F894DEBF0FBECDBFE3E6F1E08091F10074
:103E3000819321E0EB36F207C9F70E9421148091AB
:103E4000E80083FF22C19091630180916401853075
:103E500009F477C030F4813081F168F0833069F182
:103E600014C1883009F4E2C0893009F4F1C0863009
:103E700009F00BC188C0903881F0923809F005C173
:103E8000809167018F708093E9008091EB0085FB42
:103E9000882780F91092E90006C080915F01909117
:103EA0006001911182609091E800977F9093E80003
:103EB0008093F1001092F100C4C0292F2D7F09F0EA
:103EC000E4C0992319F0923061F0DFC09091650150
:103ED000913009F0DAC0833009F090E090936001EE
:103EE0002AC090916501911126C0209167012F7021
:103EF00009F4CBC02093E9009091EB0090FF1BC028
:103F0000833021F48091EB00806213C08091EB003C
:103F100080618093EB0081E090E0022E01C0880F69
:103F20000A94EAF78093EA001092EA008091EB008D
:103F300088608093EB001092E9008091E800877F11
:103F400083C09111A2C0109165011F778091E30099
:103F50008078812B8093E3008091E800877F8093B5
:103F6000E800A0DD8091E80080FFFCCF8091E300B5
:103F700080688093E300112311F083E001C082E0A8
:103F80008093620182C09058923008F07EC0809188
:103F90006501909166018C3D23E0920771F583E005
:103FA0008A838AE289834FB7F894DE01139620E072
:103FB0003EE051E2E32FF0E050935700E49120FF00
:103FC00003C0E295EF703F5FEF708E2F90E0EA3014
:103FD00010F0C79601C0C0968D939D932F5F24313A
:103FE00049F74FBF8091E800877F8093E8006AE23D
:103FF00070E0CE010196E1DB13C0AE014F5F5F4F71
:10400000609167010E944E14009709F43EC0209110
:10401000E800277F2093E800BC0189819A816EDC4B
:104020008091E8008B778093E8002FC0903869F585
:104030008091E800877F8093E80080915E01809303
:10404000F1008091E8008E778093E8002BDD1DC0A1
:1040500091111BC0909165019230B8F48091E800F5
:10406000877F8093E80090935E011CDD80915E0164
:10407000811104C08091E30087FF02C084E001C089
:1040800081E0809362010E9409148091E80083FF1F
:104090000AC08091E800877F8093E8008091EB0060
:1040A00080628093EB00AA960FB6F894DEBF0FBE35
:1040B000CDBFDF91CF911F9108950895CF93809147
:1040C00062018823A9F08091E9008F709091EC0043
:1040D00090FF02C090E801C090E0C92FC82B109259
:1040E000E9008091E80083FD94DECF70C093E90081
:1040F000CF910895CF93DF93EC01FC0170968BE094
:10410000DF011D928A95E9F782E08C83898783E03D
:104110008E8761E0CE01019688DC882361F061E042
:10412000CE01069682DC882331F061E0CE010B9649
:10413000DF91CF917ACC80E0DF91CF910895DB01C0
:10414000209162012430D1F4FC01448955896689AB
:104150007789452B462B472B89F081818F7080937F
:10416000E900FD0101900020E9F7BF0161507109EC
:104170006A1B7B0B40E050E0CD01D8CA82E0089575
:10418000CF93C62F209162012430F1F4FC014489C1
:10419000558966897789452B462B472BA9F0818164
:1041A0008F708093E9008091E80085FF04C0C09380
:1041B000F10080E00AC08091E8008E778093E800EB
:1041C00092DC8823A1F301C082E0CF910895209171
:1041D0006201243041F5FC0144895589668977895B
:1041E000452B462B472BF9F081818F708093E90096
:1041F0002091F3008091F20090E0922B892B89F0BE
:104200009091E8008091E8008E778093E80095FD1A
:1042100008C069DC811108C08091E8008E77809326
:10422000E80080E0089582E0089520916201243042
:1042300089F4FC014489558966897789452B462B89
:10424000472B41F021812F702093E9002091E80055
:1042500020FDBDCF089520916201243019F080E047
:1042600090E00895FC014489558966897789452B3A
:10427000462B472BA1F386818F708093E9008091B4
:10428000E80082FFECCF2091F3008091F20090E0F3
:10429000922B009731F42091E8002B772093E800CF
:1042A00008952091F3008091F20090E0922B089500
:1042B00020916201243019F08FEF9FEF0895FC01E7
:1042C0004489558966897789452B462B472BA1F36D
:1042D00086818F708093E9008091E80082FFECCFA7
:1042E0002091F3008091F20090E0922B892B21F035
:1042F0002091F10030E002C02FEF3FEF4091F3003A
:104300008091F20090E0942B892B29F48091E800B1
:104310008B778093E800C90108950895CF93DF93C8
:10432000EC018091E80083FFA6C0888190E0209195
:104330006701309168012817390709F09CC0809106
:104340006401813261F020F4803209F43EC093C0F0
:10435000823209F46CC0833209F47DC08CC0809134
:104360006301813A09F087C08091E800877F8093DC
:10437000E8008091E80080FFFCCF4C895D896E8960
:104380007F894093F100BB27A72F962F852F80931D
:10439000F100CB01AA27BB278093F100472F5527B7
:1043A000662777274093F100888D8093F100898DEF
:1043B0008093F1008A8D8093F1008091E8008E77E0
:1043C0008093E800DF91CF916DCB809163018132C2
:1043D00009F051C08091E800877F8093E8008091C8
:1043E000E80082FD05C0809162018111F8CF43C0D1
:1043F0003091F1002091F1009091F1008091F10055
:104400003C8B2D8B9E8B8F8B8091F100888F8091C0
:10441000F100898F8091F1008A8F8091E8008B777D
:104420008093E8003FDBCE01DF91CF9176CF809182
:104430006301813201F58091E800877F8093E80075
:1044400031DB8091650190916601998B888BCE015B
:10445000DF91CF9162CF80916301813261F48091CD
:10446000E800877F8093E8001DDB60916501CE0145
:10447000DF91CF9152CFDF91CF9108956F927F92CC
:104480008F929F92AF92BF92CF92DF92EF92FF9264
:104490000F931F93CF93DF9300D01F92CDB7DEB75A
:1044A0007C01ADB6BEB68091E80083FF04C1F70180
:1044B000808190E0209167013091680128173907C9
:1044C00009F0F9C080916401833009F49BC030F495
:1044D000813071F0823009F4D2C0EDC08A3009F425
:1044E000B6C08B3009F49FC0893009F0E4C04CC0DD
:1044F00080916301813A09F0DEC08DB69EB61A82C2
:10450000198280916501109166018B83F7014085C6
:1045100050E08DB79EB7841B950B0FB6F8949EBFE5
:104520000FBE8DBFEDB7FEB731966F0160E070E052
:10453000CF01F3D14FEF410F8E010F5F1F4F960157
:10454000BE016D5F7F4FC7010E943514F701868160
:104550009781009721F0408550E0B601D5D11092A7
:10456000E9008091E800877F8093E8008B818111CA
:104570008093F10069817A81C6011FD98091E8009A
:104580008B778093E80038C080916301813209F015
:1045900092C08DB69EB60091690110916A0170902B
:1045A0006501609066018DB79EB7801B910B0FB6B9
:1045B000F8949EBF0FBE8DBFEDB7FEB731966F0169
:1045C0008091E800877F8093E800B801CF0156D939
:1045D0008091E8008E778093E80021E0711001C09F
:1045E00020E030E0021B130B2C0D3D1D4FEF460D5C
:1045F000672DC7010E944D140FB6F8949EBE0FBEE2
:104600008DBE59C080916301813A09F054C08091F8
:10461000E800877F8093E8008091E80080FFFCCF6E
:10462000F701818540C080916301813209F043C068
:104630008091E800877F8093E80034DA90916501EB
:1046400081E0911101C080E0F701818734C0809141
:104650006301813281F58091E800877F8093E800D3
:1046600021DA8091650190916601882736E0969560
:1046700087953A95E1F7F701958784871CC080916B
:104680006301813AC1F48091E800877F8093E8005C
:104690008091E80080FFFCCFF70184859585969591
:1046A0008795969587958093F1008091E8008E77A5
:1046B0008093E800F7D90FB6F894BEBE0FBEADBE2A
:1046C0000F900F900F90DF91CF911F910F91FF905E
:1046D000EF90DF90CF90BF90AF909F908F907F90A2
:1046E0006F900895FC01399627E0DF011D922A950D
:1046F000E9F721E0FC01218724EF31E035872487A9
:1047000023E0248361E0019690C95F926F927F92CB
:104710008F929F92AF92BF92CF92DF92EF92FF92D1
:104720000F931F93CF93DF9300D01F92CDB7DEB7C7
:104730007C01ADB6BEB680916201843009F08CC0B8
:104740008091E4009091E500F701228533852817D8
:10475000390709F481C081818F708093E9008091CD
:10476000E80085FF79C08DB69EB6408550E08DB7D4
:104770009EB7841B950B0FB6F8949EBF0FBE8DBFDE
:10478000EDB7FEB731966F011B821A82198260E085
:1047900070E0CF01C2D08E010F5F1F4F960140E045
:1047A000BE016D5F7F4FC7010E943514682EF7016F
:1047B00084859585892B41F021E086859785892B15
:1047C00009F020E0722E01C0712CF70106811781DB
:1047D0000115110589F049815A81B801C60187D0B8
:1047E00055245394892B09F4512CF701408550E04E
:1047F000B601C80189D001C0512C29813A81232BEF
:10480000F9F0611004C0511002C070FE19C0F70128
:10481000848595859787868781818F708093E9004D
:104820008B8181118093F10069817A8140E050E0B1
:10483000C6010E94961B8091E8008E778093E80065
:104840008091E4009091E500F701938782870FB68D
:10485000F8949EBE0FBE8DBE0FB6F894BEBE0FBEBE
:10486000ADBE0F900F900F90DF91CF911F910F91E0
:10487000FF90EF90DF90CF90BF90AF909F908F9080
:104880007F906F905F900895991B79E004C0991F05
:10489000961708F0961B881F7A95C9F7809508959A
:1048A00097FB072E16F4009406D077FD08D00BD0A6
:1048B00007FC05D03EF4909581959F4F0895709523
:1048C00061957F4F0895AA1BBB1B51E107C0AA1F2A
:1048D000BB1FA617B70710F0A61BB70B881F991FA1
:1048E0005A95A9F780959095BC01CD010895FB01DB
:1048F000DC0104C08D910190801921F44150504099
:10490000C8F7881B990B0895FB01DC0102C00190D8
:104910000D9241505040D8F70895DC0101C06D93CD
:1049200041505040E0F70895DC016C9161566A31C6
:1049300008F0605E6F5B6D93C1F70895F894FFCF48
:104940002002810800000151010800000000000061
:104950000000831000000104100000018208000024
:104960000100000000000000000000000820080016
:1049700000000000411A691A241B541AA61AE21AF0
:08498000131B441A4C1A631BBF
:00000001FF
